027077404071CV360400040407100000645170004040710000064517            SANDRA PAULINA DIAZ MUNOZ                                   00000025505 JR. SALAVERRY 390 URB. BARRIO LA FLORIDA                                                                                060101   CAJAMARCA                     CAJAMARCA             00000214495 00000214495 00000000000 201801192018021820180315201803182018041500000007375 00000025505 00000025505 00000021630 00000003900 00000000000 00000000000000000000000000000000000000000 00000000000 00000000000 00000000000 00000000000 00000240000 00000240000 00000007475 00000025530 00000007500 000920000092000000000000000000000000000 1       45841         00000000000 00000003000 00000000000 00000004375 00000021130 00000000000 00000004375 A DOS CUADRAS DEL CEMENTERIO                           00000240000 00000000000 00000000000 00000000000 0           1SANDRA                   11FEB     ENE     DIC     000000OG000000000080000003570000000400000000000000 00000000000 00000000000 00000000000                                                                                                                                                                                                                                                           FEBRERO   2018                              0000003900ESANDRADIAZM_@HOTMAIL.COM                                                                            9200*
046432404071CV260400040407100011327190004040710001132719            HAIDEE HUACCHAHUILCA TAYPE                                  00000096964 AV. ANCASH 800 INT. B101 URB. PARURO 425 39                                                                             150101   LIMA                          LIMA                  00000203036 00000090000 00000000000 201801192018021820180315201803182018041500000013489 00000088725 00000096964 00000083863 00000000000 00000002583 18041500000000000000000000000000000008239 00000000000 00000000000 00000000000 00000000000 00000300000 00000090000 00000100749 00000086446 00000090231 000920000092000000000000000000000000000 1       44471         00000000000 00000010406 00000002583 00000000500 00000085642 00000002583 00000000500 AL FRENTE DE LA CLINICA SAN CAMILA                     00000090000 00000000000 00000000000 00000000000 0           2HAIDEE                   11FEB     ENE     DIC     000000OG000000000270000054811000001350000000000000 00000000000 00000000000 00000000000                                                                                                                                                                                                                                                           FEBRERO   2018                              0000003900EHAIDEEHUACCHAHUILCATAYPE@GMAIL.COM                                                                  9200*
031574404071CV260400040407100011406960004040710001140696            EDUARDO PILCO PARI                                          00000122095 MZ: L2 LOTE: 26 GRP. ACOCIACION NUEVA MOQUEGUA ZN. SAN ANTONIO                                                          180101   MOQUEGUA                      MARISCAL NIETO        00000150705 00000081840 00000000000 201801192018021820180315201803182018041500000025606 00000025985 00000122095 00000000500 00000004500 00000000681 18041518051518061518071518081500000016001 00000018164 00000015945 00000013973 00000011949 00000272800 00000081800 00000305754 00000005681 00000189340 000920000092000000000000000000000000000 1       00488         00000000000 00000019925 00000000681 00000005000 00000020304 00000000681 00000005000 A ESPALDAS DE LA POLLERIA MICKY SHOW CERCA AL TALLER Y 00000081840 00000000000 00000000000 00000000000 0           2EDUARDO                  11FEB     ENE     DIC     000000OG000000000120000022254000001200000000000000 00000000000 00000000000 00000000000                                                                                                                                                                                                                                                           FEBRERO   2018                              0000003900Emario1@gmail.com                                                                                    9200*
061286404071CV260400040407100015766750004040710001576675            NORMA ALLISON HERNANDEZ VELARDE                             00000036842 AV. LA CAPILLA 355 MZ: D LOTE: 13                                                                                       150128   RIMAC                         LIMA                  00000083158 00000000000 00000000000 201801192018021820180315201803182018041500000023533 00000023533 00000036842 00000012352 00000000000 00000001161 18041518051500000000000000000000000011106 00000003095 00000000000 00000000000 00000000000 00000120000 00000000000 00000099396 00000024499 00000087053 000920000092000000000000000000000000000 1       41314         00000000000 00000018834 00000004199 00000000500 00000018834 00000004199 00000000500 ESPALDA CUARTEL GUARDIA                                00000000000 00000011166 00000100000 00000073743 0           1NORMA                    21FEB     ENE     DIC     000000OG000000000080000015959000000400000000100000 00000036200 00000073743 00000000000                                                                                                                                                                                                                                                           FEBRERO   2018                              0000003900EKALETH02@HOTMAIL.COM                                                                                9200*
069399404071STD60400040407100015966990004040710001596699            NANCY EDITH MENDOZA VARILLAS                                00000009264 CAL. CASTILLA LA VIEJA 504 DPTO. 202 URB. LA CALESA                                                                     150140   SANTIAGO DE SURCO             LIMA                  00000040736 00000000000 00000000000 201801192018021820180315201803182018041500000006465 00000006465 00000009264 00000000500 00000004500 00000001547 18041500000000000000000000000000000003153 00000000000 00000000000 00000000000 00000000000 00000050000 00000000000 00000040617 00000006547 00000037900 000920000092000000000000000000000000000 1       16468         00000000000 00000000000 00000001547 00000004918 00000000000 00000001547 00000004918 ALTURA DE OVALO HIGUERETA                              00000000000 00000000000 00000000000 00000000000 0           2NANCY                    13FEB     ENE     DIC     000000OG000000000010000000354000000100000000000000 00000000000 00000000000 00000000000                                                                                                                                                                                                                                                           FEBRERO   2018                              0000003900ECASADEREPOSOELMANA@HOTMAIL.COM                                                                      9200*
030068404071STD60400040407100030266950004040710003026695            MARTIZA GREGORIA OBISPO LEON                                00000063648 AV. VILLA JARDIN CUCUYA SN MZ: F LOTE: 1                                                                                150731   SANTO DOMINGO DE LOS OLLEROS  HUAROCHIRI            00000036352 00000000000 00000000000 201801192018021820180315201803182018041500000037649 00000063648 00000063648 00000000500 00000005500 00000002754 00000000000000000000000000000000000000000 00000000000 00000000000 00000000000 00000000000 00000100000 00000000000 00000091039 00000008754 00000051945 000920000092000000000000000000000000000 1       40568         00000000000 00000041695 00000002754 00000009000 00000051894 00000002754 00000009000 FRENTE A LA MUNICIPALIDAD                              00000000000 00000000000 00000000000 00000000000 0           2MARTIZA                  22FEB     ENE     DIC     000000OG000000000010000000000000000100000000000000 00000000000 00000000000 00000000000                                                                                                                                                                                                                                                           FEBRERO   2018                              0000003900Emario2@gmail.com                                                                                    9200*
026357404071STD60400040407100036259000004040710003625900            ROCIO DEL PILAR DUQUE BARRERA                               00000062143 CAL. ROOSVELT 1763  PPJJ URRUNAGA                                                                                       140105   JOSE LEONARDO ORTIZ           CHICLAYO              00000282857 00000000000 00000000000 201801192018021820180315201803182018041500000041021 00000041021 00000062143 00000077412 00000000500 00000003178 18041518051500000000000000000000000011435 00000006132 00000000000 00000000000 00000000000 00000345000 00000000000 00000065823 00000081090 00000084770 000920000092000000000000000000000000000 1       80511         00000000000 00000036843 00000003178 00000001000 00000036843 00000003178 00000001000 ENTRE LAS CALLES SAN MARTIN Y SAN FRANCISCO            00000000000 00000000000 00000000000 00000000000 0           1ROCIO                    21FEB     ENE     DIC     000000OG000000000030000004415000000300000000000000 00000000000 00000000000 00000000000                                                                                                                                                                                                                                                           FEBRERO   2018                              0000003900E0                                                                                                   9200*
000079404071STD60400040407100036336490004040710003633649            LAURA CAROLINA INCIO PEREZ                                  00000073571 PSJ. MARCIAL TIRADO GALVEZ 102                                                                                          140213   MARISCAL CASTILLA             FERREÑAFE             00000000000 00000000000 00000000000 201801192018021820180315201803182018041500000068097 00000073571 00000073571 00000000500 00000005500 00000002013 00000000000000000000000000000000000000000 00000000000 00000000000 00000000000 00000000000 00000065000 00000000000 00000066058 00000008013 00000000500 000920000092000000000000000000000000000 1       48187         00000000000 00000043632 00000007939 00000022000 00000043632 00000007939 00000022000 FRENTE A LA COMUNIDAD CAMPESINA                        00000000000 00000000000 00000000000 00000000000 0           2LAURA                    22FEB     ENE     DIC     000000OG000000000010000000423000000100000000000000 00000000000 00000000000 00000000000                                                                                                                                                                                                                                                           FEBRERO   2018                              0000003900EKROLINA-8@HOTMAIL.COM                                                                               9200*
012949404071STD60400040407100037144800004040710003714480            ADA VICTORIA TORRES ROJAS                                   00000090664 JR. CESAR VALLEJO 137                                                                                                   100102   AMARILIS                      HUANUCO               00000009336 00000000000 00000000000 201801192018021820180315201803182018041500000073156 00000078804 00000090664 00000000500 00000004500 00000002949 18041500000000000000000000000000000023458 00000000000 00000000000 00000000000 00000000000 00000100000 00000000000 00000105835 00000007949 00000023120 000920000092000000000000000000000000000 1       41704         00000000000 00000059940 00000007216 00000006000 00000065588 00000007216 00000006000 DOMICILIO UBICADO AL FRENTE DEL COMPLEJO DEPORTIVO     00000000000 00000000000 00000000000 00000000000 0           2ADA                      11FEB     ENE     DIC     000000OG000000000040000003226000000400000000000000 00000000000 00000000000 00000000000                                                                                                                                                                                                                                                           FEBRERO   2018                              0000003900Emtenazoa21@gmail.com                                                                                9200*
015492404071STD60400040407100040673670004040710004067367            YOLANDA MATILDE DIAZ SANCHEZ                                00000093626 MZ: A LOTE: 5 URB. GUZMAN BARRIO                                                                                        110201   CHINCHA ALTA                  CHINCHA               00000000000 00000000000 00000000000 201801192018021820180315201803182018041500000075588 00000079898 00000093626 00000047751 00000004000 00000003113 18041500000000000000000000000000000014437 00000000000 00000000000 00000000000 00000000000 00000080000 00000000000 00000060001 00000054864 00000021239 000920000092000000000000000000000000000 1       41517         00000000000 00000063658 00000007430 00000008810 00000063658 00000007430 00000008810 A UNA CUADRA DEL HOSPITAL SAN JOSE                     00000000000 00000000000 00000000000 00000000000 0           2YOLANDA                  22FEB     ENE     DIC     000000OG000000000020000003639000000100000000000000 00000000000 00000000000 00000000000                                                                                                                                                                                                                                                           FEBRERO   2018                              0000003900EYOLANDA.DIAZ.SANCHEZ@GMAIL.COM                                                                      9200*
040200404071STD60400040407100045065880004040710004506588            ALBERTO VENTURA MEDINA VILDOSO                              00000084712 CAL. RUFINO ALBARRACIN 919 U.V. PARA CHICO                                                                              230101   TACNA                         TACNA                 00000015288 00000000000 00000000000 201801192018021820180315201803182018041500000022923 00000022923 00000084712 00000037993 00000000500 00000004743 18041518051518061518071518081500000019428 00000015867 00000008654 00000006314 00000002043 00000100000 00000000000 00000062256 00000043236 00000020780 000920000092000000000000000000000000000 1       04638         00000000000 00000017180 00000004743 00000001000 00000017180 00000004743 00000001000 A MEDIA CUADRA DEL HOSPITAL DE LA SOLIDARIDAD          00000000000 00000000000 00000000000 00000000000 0           1ALBERTO                  21FEB     ENE     DIC     000000OG000000000200000023857000002000000000000000 00000000000 00000000000 00000000000                                                                                                                                                                                                                                                           FEBRERO   2018                              0000003900Eangie_ae@hotmail.com                                                                                9200*
006579404071STD60400040407100047482300004040710004748230            MILY ROXANA TOLEDO TASILLA                                  00000038410 JR. JOSE VILLANUEVA CUADRA 6 URB. BARRIO CHONTAPACCHA                                                                   060101   CAJAMARCA                     CAJAMARCA             00000061590 00000000000 00000000000 201801192018021820180315201803182018041500000038410 00000038410 00000038410 00000001190 00000004000 00000002038 18041500000000000000000000000000000007300 00000000000 00000000000 00000000000 00000000000 00000100000 00000000000 00000104322 00000007228 00000073140 000920000092000000000000000000000000000 1       45056         00000000000 00000031872 00000002038 00000004500 00000031872 00000002038 00000004500 ALTURA DEL COLEGIO SAMANA CRUZ                         00000000000 00000000000 00000000000 00000000000 0           2MILY                     23FEB     ENE     DIC     000000OG000000000020000000181000000100000000000000 00000000000 00000000000 00000000000                                                                                                                                                                                                                                                           FEBRERO   2018                              0000003900E                                                                                                    9200*
025528404071STD60400040407100050958050004040710005095805            ERNESTO NECIOSUP VELASQUEZ                                  00000132359 CAL. HUASCAR 302                                                                                                        140103   ETEN                          CHICLAYO              00000017641 00000000000 00000000000 201801192018021820180315201803182018041500000132359 00000132359 00000132359 00000001190 00000004500 00000004250 18041500000000000000000000000000000014049 00000000000 00000000000 00000000000 00000000000 00000150000 00000000000 00000139069 00000009940 00000016650 000920000092000000000000000000000000000 1       16516         00000000000 00000113513 00000009346 00000009500 00000113513 00000009346 00000009500 A DOS CUADRAS PRINCIPAL DEL MERCADO                    00000000000 00000000000 00000000000 00000000000 0           2ERNESTO                  23FEB     ENE     DIC     000000OG000000000020000003408000000100000000000000 00000000000 00000000000 00000000000                                                                                                                                                                                                                                                           FEBRERO   2018                              0000003900ELIBRA_IVAN_94@HOTMAIL.COM                                                                           9200*
015145404071STD60400040407100053885800004040710005909765            GLADYS GRACIELA TORRES REYES                                00000238750 CAL. LIBERTAD 240                                                                                                       110108   SALAS                         ICA                   00000021250 00000000000 00000000000 201801192018021820180315201803182018041500000036432 00000036432 00000238750 00000000500 00000000500 00000000000 18041518051518061518071518081500000015240 00000019354 00000019354 00000019354 00000019354 00000260000 00000000000 00000273405 00000011645 00000046300 000920000092000000000000000000000000000 1       21537         00000000000 00000033985 00000001447 00000001000 00000033985 00000001447 00000001000 AL COSTADO DEL COLISEO DE GALLOS CASA COLOR VERDE DE 2 00000000000 00000010645 00000434000 00000039322 0           1GLADYS                   33FEB     ENE     DIC     000000OG000000000130000039302000001300000000434000 00000438000 00000039322 00000000000                                                                                                                                                                                                                                                           JULIO     2018                              0000003900Egladystorres23@hotmail.com                                                                          9200*
068737404071CV260400040407100056792930004040710005679293            LATINAM GUTIERREZ SILVA                                     00000756171 MZ: H LOTE: 10  VILLA SAN FRANCISCO                                                                                     150137   SANTA ANITA                   LIMA                  00000000000 00000000000 00000000000 201801192018021820180315201803182018041500000084385 00000084385 00000756171 00000711628 00000000000 00000059172 18041518051518061518071518081500000083887 00000083887 00000083887 00000083887 00000083887 00000720000 00000216000 00000005898 00000770800 00000020527 000920000092000000000000000000000000000 1       40646         00000000000 00000024713 00000059172 00000000500 00000024713 00000059172 00000000500 A LA ALTURA DEL PARQUE SEIS                            00000216000 00000000000 00000000000 00000000000 0           3LATINAM                  33FEB     ENE     DIC     000000OG000000000120000310137000000600000000000000 00000000000 00000000000 00000000000                                                                                                                                                                                                                                                           JUNIO     2018                              0000003900EEBARRON2014@GMAIL.COM                                                                               9200*
150317524601STD60400052460100023123480005246010002312348            ELIZABETH DOMINGUEZ BAYLON                                  00000114533 JR. VERASIDAD 7685                                                                                                      150117   LOS OLIVOS                    LIMA                  00000245467 00000000000 00000000000 201801192018021820180315201803182018041500000114533 00000114533 00000114533 00000000500 00000005500 00000004008 00000000000000000000000000000000000000000 00000000000 00000000000 00000000000 00000000000 00000360000 00000000000 00000104525 00000010008 00000000000 000920000092000000000000000000000000000 1       07968         00000000000 00000078630 00000018403 00000017500 00000078630 00000018403 00000017500 FRENTE CLINICA 2000                                    00000000000 00000000000 00000000000 00000000000 0           2ELIZABETH                22FEB     ENE     DIC     000000OG000000000010000000670000000100000000000000 00000000000 00000000000 00000000000                                                                                                                                                                                                                                                           OCTUBRE   2018                              0000003900E                                                                                                    9200*
154817524601CV260400052460100023794950005246010010824789            REMBERTO BACILIO DE LA CRUZ                                 00000032405 MZ: H LOTE: 7 CENTRO POBLADO 6 DE ABRIL ZAP                                                                             150125   PUENTE PIEDRA                 LIMA                  00000097595 00000000000 00000000000 201801192018021820180315201803182018041500000021873 00000021873 00000032405 00000000505 00000000500 00000003012 18041500000000000000000000000000000011140 00000000000 00000000000 00000000000 00000000000 00000130000 00000000000 00000154261 00000004017 00000125873 000920000092000000000000000000000000000 1       19032         00000000000 00000017856 00000003012 00000001005 00000017856 00000003012 00000001005 ALTURA PARAD LINEA 2 A 3 CUADRAS LOZA DEPORTIVA        00000000000 00000009386 00000130000 00000000000 0           1REMBERTO                 22FEB     ENE     DIC     000000OG000000000020000002105000000200000000130000 00000143000 00000000000 00000000000                                                                                                                                                                                                                                                           OCTUBRE   2018                              0000003900E                                                                                                    9200*
164183524601CV360400052460100025899290005246010012633386            MARI LOPEZ  VARGAS                                          00000044231 CAL. BARLOVENTO 145 INT. 2  HIGUERETA                                                                                   150140   SANTIAGO DE SURCO             LIMA                  00000855769 00000855769 00000000000 201801192018021820180315201803182018041500000032205 00000032205 00000044231 00000000500 00000004500 00000000403 18041500000000000000000000000000000012146 00000000000 00000000000 00000000000 00000000000 00000900000 00000900000 00000109328 00000005403 00000070500 000920000092000000000000000000000000000 1       40618         00000000000 00000026949 00000000403 00000004853 00000026949 00000000403 00000004853 ALT CDRA 34 DE LA AV BENAVIDES                         00000900000 00000000000 00000000000 00000000000 0           2MARI                     11FEB     ENE     DIC     000000OG000000000020000000120000000200000000000000 00000000000 00000000000 00000000000                                                                                                                                                                                                                                                           NOVIEMBRE 2018                              0000003900EMARIO3@GMAIL.COM                                                                                    9200*
099591524601STD60400052460100028984110005246010011450493            ARTURO MAURICIO PENA                                        00000262401 CAL. SAN MARTIN 466 AAHH. ALTO MOCHE                                                                                    130107   MOCHE                         TRUJILLO              00000177599 00000000000 00000000000 201801192018021820180315201803182018041500000033434 00000069268 00000262401 00000039339 00000000000 00000000000 18041518051518061518071518081500000033640 00000018303 00000018303 00000018303 00000018303 00000440000 00000000000 00000332864 00000039339 00000109802 000920000092000000000000000000000000000 1       18194         00000000000 00000032929 00000000000 00000000505 00000068763 00000000000 00000000505                                                        00000000000 00000000000 00000000000 00000000000 0           1ARTURO                   11FEB     ENE     DIC     000000OG000000000130000054797000000650000001100000 00001210000 00000000000 00000000000                                                                                                                                                                                                                                                           DICIEMBRE 2018                              0000003900Eamauriciop@hotmail.com                                                                              9200*
108181524601CV260400052460100029152980005246010012806966            SERGIO ANTONIO REQUES RIOS                                  00000050928 AV. SALAVERRY 280 ALDEA CAMPESINA                                                                                       150605   CHANCAY                       HUARAL                00000439072 00000000000 00000000000 201801192018021820180315201803182018041500000038645 00000038645 00000050928 00000024546 00000000500 00000000000 18041500000000000000000000000000000012283 00000000000 00000000000 00000000000 00000000000 00000490000 00000000000 00000057445 00000045895 00000052412 000920000092000000000000000000000000000 140127888             00000000000 00000031502 00000006143 00000001000 00000031502 00000006143 00000001000 1/2 CDRA DEL LOVALO DE CHANCAY                         00000000000 00000020849 00000390000 00000328302 0           1SERGIO                   21FEB     ENE     DIC     000000OG000000000190000067835000001900000000390000 00000100600 00000328302 00000000000                                                                                                                                                                                                                                                           DICIEMBRE 2018                              0000003900Esergiorequesrios@hotmail.com                                                                        9200*
159140524601CV260400052460100030530080005246010010761569            LUISA SILVERA VARGAS                                        00000905793 JR. CESAR VALLEJO 233 CHACARILLA DE OTERO                                                                               150132   SAN JUAN DE LURIGANCHO        LIMA                  00000000000 00000000000 00000000000 201801192018021820180315201803182018041500000465625 00000520230 00000905793 00000032187 00000004000 00000027435 18041518051518061518071518081500000101320 00000066578 00000051239 00000051239 00000051239 00000830000 00000249000 00000766035 00000161226 00000021468 000920000092000000000000000000000000000 1       09569         00000000000 00000338375 00000118240 00000009010 00000392980 00000118240 00000009010 AV 4 DE PROCERES                                       00000249000 00000540517 00001087200 00000826240 0           2LUISA                    21FEB     ENE     DIC     000000OG000000000210000292132000001050000001087200 00000369600 00000826240 00000000000                                                                                                                                                                                                                                                           DICIEMBRE 2018                              0000003900ELUISASILVERAVARGAS@HOTMAIL.COM                                                                      9200*
144153524601STD60400052460100034475150005246010012638872            SANDRA EDITH LUNA SAENZ                                     00000101441 JR. LUIS SAENZ 440  JESUS MARIA                                                                                         150113   JESUS MARIA                   LIMA                  00000408559 00000000000 00000000000 201801192018021820180315201803182018041500000091880 00000093370 00000101441 00000004990 00000004000 00000003036 18041500000000000000000000000000000012715 00000000000 00000000000 00000000000 00000000000 00000510000 00000000000 00000133365 00000012026 00000043950 000920000092000000000000000000000000000 1       07252         00000000000 00000084344 00000003036 00000004500 00000085834 00000003036 00000004500 ALTURA DE LA CUADRA 20 ARNALDO MARQUEZ O EL OVALO DE LA00000000000 00000000000 00000000000 00000000000 0           2SANDRA                   11FEB     ENE     DIC     000000OG000000000020000003512000000100000000000000 00000000000 00000000000 00000000000                                                                                                                                                                                                                                                           ENER0     2019                              0000003900Eluna_shana@hotmail.com                                                                              9200*
159646524601CV260400052460100041161500005246010004116150            RICARDO LUIS SALINAS TORRES                                 00000310490 AV. COYLLUR 398  ZARATE                                                                                                 150132   SAN JUAN DE LURIGANCHO        LIMA                  00000000000 00000000000 00000000000 201801192018021820180315201803182018041500000111272 00000253972 00000310490 00000000500 00000008900 00000015016 18041518051518061500000000000000000020375 00000020375 00000020379 00000000000 00000000000 00000270000 00000000000 00000286074 00000024416 00000000000 000920000092000000000000000000000000000 1       40586         00000000000 00000061621 00000032851 00000016800 00000204321 00000032851 00000016800 A LA ALTURA DE LA CUADRA 17 Y 18 DE LA AVENIDA PERU    00000000000 00000084575 00000000000 00000000000 0           2RICARDO                  21FEB     ENE     DIC     000000OG000000000040000007334000000400000000000000 00000000000 00000000000 00000000000                                                                                                                                                                                                                                                           MARZO     2018                              0000003900EALIANZA80VIRGO@HOTMAIL.COM                                                                          9200*
104668524601STD60400052460100042711380005246010004271138            JUAN CARLOS HERNANDEZ BURGA                                 00001031098 AV. SAN MARTIN 59                                                                                                       140118   POMALCA                       CHICLAYO              00000468902 00000161534 00000000000 201801192018021820180315201803182018041500000163905 00000163905 00001031098 00000569367 00000003500 00000036218 18041518051518061518071518081500000124220 00000124219 00000109323 00000109322 00000100197 00001500000 00000900000 00001168610 00000636939 00000774451 000920000092000000000000000000000000000 1       16675         00000000000 00000112758 00000047146 00000004001 00000112758 00000047146 00000004001 POR LA CENTRAL TELEFONICA                              00000900000 00000738466 00001500000 00000469307 0           1JUAN                     11FEB     ENE     DIC     000000OG000000000220000353461000001100000001500000 00001180600 00000469307 00000000000                                                                                                                                                                                                                                                           ABRIL     2018                              0000003900Ecarloshburga@hotmail.com                                                                            9200*
165380524601CV360400052460100043266500005246010004326650            TERESA LLANOS DE CORRALES                                   00000156042 AV. LOS PRECURSORES 453                                                                                                 150135   SAN MARTIN DE PORRES          LIMA                  00000083958 00000000000 00000000000 201801192018021820180315201803182018041500000084554 00000087034 00000156042 00000000500 00000004500 00000003542 18041518051518061518071500000000000018575 00000018575 00000018575 00000018582 00000000000 00000240000 00000000000 00000166200 00000008542 00000018700 000920000092000000000000000000000000000 1       25633         00000000000 00000066903 00000015131 00000005000 00000066903 00000015131 00000005000 ALT DE ANGELICA GAMARRA CON TOMAS VALLE                00000000000 00000002779 00000240000 00000000000 0           2TERESA                   22FEB     ENE     DIC     000000OG000000000050000007673000000250000000240000 00000264000 00000000000 00000000000                                                                                                                                                                                                                                                           ABRIL     2018                              0000003900Ebetshy025@hotmail.com                                                                               9200*
104877524601CV360400052460100054989040005246010005498904            JOSE LUIS CHOMBA CARRANZA                                   00000392196 AV. MARISCAL CASTILLA 384                                                                                               140113   REQUE                         CHICLAYO              00000067804 00000000000 00000000000 201801192018021820180315201803182018041500000166785 00000177972 00000392196 00000000500 00000005000 00000010683 18041518051518061518071518081500000034897 00000034897 00000034897 00000034897 00000034897 00000460000 00000000000 00000376013 00000016183 00000000000 000920000092000000000000000000000000000 1       42462         00000000000 00000124938 00000037534 00000015500 00000124938 00000037534 00000015500 AL FRENTE DE LA GRANJA COSTADO DE PARQUE INFANTIL      00000000000 00000042300 00000000000 00000000000 0           2JOSE                     22FEB     ENE     DIC     000000OG000000000080000038466000000400000000000000 00000000000 00000000000 00000000000                                                                                                                                                                                                                                                           OCTUBRE   2018                              0000003900EJOSEPH_K28@HOTMAIL.COM                                                                              9200*
144620524601STD60400052460100058355190005246010005835519            FLOR DE MARIA JAUREGUI TAGLE                                00000112018 CAL. CARACAS 2432 URB. FUNDO OYAGUE                                                                                     150113   JESUS MARIA                   LIMA                  00000777982 00000000000 00000000000 201801192018021820180315201803182018041500000038350 00000069144 00000112018 00000124438 00000000000 00000015184 18041518051500000000000000000000000025575 00000020879 00000000000 00000000000 00000000000 00000890000 00000000000 00000218616 00000139622 00000246220 000920000092000000000000000000000000000 1       07205         00000000000 00000022666 00000015184 00000000500 00000053460 00000015184 00000000500 ALT DE LA CDRA 6 DE GREGORIO ESCOBEDO                  00000000000 00000000000 00000000000 00000000000 0           1FLOR                     11FEB     ENE     DIC     000000OG000000000120000017333000000600000000000000 00000000000 00000000000 00000000000                                                                                                                                                                                                                                                           NOVIEMBRE 2018                              0000003900EFLORDEMARIA.DECORA.JT@HOTMAIL.COM                                                                   9200*
173669524601STD60400052460100060092540005246010007972880            NORMA RIVERA GOMEZ                                          00000208813 JR. MANUEL ITURREGUI 584 INT. 10                                                                                        150141   SURQUILLO                     LIMA                  00000251187 00000000000 00000000000 201801192018021820180315201803182018041500000026250 00000026250 00000208813 00000009134 00000000000 00000005002 18041518051518061518071518081500000028881 00000023919 00000025004 00000025276 00000025276 00000460000 00000000000 00000470576 00000014136 00000275899 000920000092000000000000000000000000000 1       08816         00000000000 00000020748 00000005002 00000000500 00000020748 00000005002 00000000500 ALT DE LA CDRA 11 Y 12 DE ANGAMOS                      00000000000 00000067494 00000920000 00000000000 0           1NORMA                    11FEB     ENE     DIC     000000OG000000000110000033332000000550000000920000 00001012000 00000000000 00000000000                                                                                                                                                                                                                                                           DICIEMBRE 2018                              0000003900Er_norma_16@hotmail.com                                                                              9200*
140581524601CV260400052460100060478820005246010006047882            AURORA LOURDES BELLO REYNA                                  00000246274 JR. CARLOS LISSON 441 MZ: B LOTE: 17 URB. SAN AGUSTIN ET. 2                                                             150110   COMAS                         LIMA                  00000000000 00000000000 00000000000 201801192018021820180315201803182018041500000246274 00000246274 00000246274 00000000500 00000012500 00000006106 00000000000000000000000000000000000000000 00000000000 00000000000 00000000000 00000000000 00000160000 00000000000 00000210488 00000035786 00000000000 000920000092000000000000000000000000000 1       09968         00000000000 00000138923 00000066761 00000040590 00000138923 00000066761 00000040590 ALTURA DE LA AV MICAELA CON LA AV TUPAC AMARU A ESPALDA00000000000 00000101754 00000302400 00000259131 0           2AURORA                   22FEB     ENE     DIC     000000OG000000000280000095731000002800000000302400 00000073400 00000259131 00000000000                                                                                                                                                                                                                                                           DICIEMBRE 2018                              0000003900EAURORA.BELLOR@HOTMAIL.COM                                                                           9200*
076939524601STD60400052460100062927850005246010012918290            TANIA CECILIA VALDIVIA MONTES                               00000105594 AV. SALAVERRY SN MZ: B LOTE: 12 URB. EL TRIANGULO                                                                       040104   CERRO COLORADO                AREQUIPA              00000194406 00000000000 00000000000 201801192018021820180315201803182018041500000069261 00000069261 00000105594 00000043967 00000004000 00000000382 18041518051518061500000000000000000024704 00000009791 00000005132 00000000000 00000000000 00000300000 00000000000 00000295729 00000057865 00000248000 000920000092000000000000000000000000000 1       29533         00000000000 00000059227 00000005534 00000004500 00000059227 00000005534 00000004500                                                        00000000000 00000009516 00000100000 00000044906 0           2TANIA                    11FEB     ENE     DIC     000000OG000000000050000002672000000250000000100000 00000065000 00000044906 00000000000                                                                                                                                                                                                                                                           ENER0     2019                              0000003900Etavapulga@gmail.com                                                                                 9200*
134722524601STD60400052460100065136360005246010006513636            CARMEN ROSA DIAZ CASTRO                                     00000003971 AV. CATALINO MIRANDA 590 INT. 2                                                                                         150104   BARRANCO                      LIMA                  00000196029 00000000000 00000000000 201801192018021820180315201803182018041500000003971 00000003971 00000003971 00000000500 00000000000 00000000106 00000000000000000000000000000000000000000 00000000000 00000000000 00000000000 00000000000 00000200000 00000000000 00000038015 00000000606 00000034650 000920000092000000000000000000000000000 106632383             00000000000 00000003365 00000000106 00000000500 00000003365 00000000106 00000000500 A 2 CUADRAS DE LA PE¿A DEL CARAJO                      00000000000 00000000000 00000000000 00000000000 0           1CARMEN                   21FEB     ENE     DIC     000000OG000000000010000000001000000050000000000000 00000000000 00000000000 00000000000                                                                                                                                                                                                                                                           FEBRERO   2018                              0000003900Ecarmen.diaz.ps@gmail.com                                                                            9200*
162643524601CV260400052460100067349680005246010012536431            ESTHER SOLEDAD GRANADOS CURI                                00000759073 MZ: 35 LOTE: 19 URB. HUASCAR SECT. A                                                                                    150132   SAN JUAN DE LURIGANCHO        LIMA                  00000740927 00000163811 00000000000 201801192018021820180315201803182018041500000292698 00000299148 00000759073 00000155305 00000004500 00000028153 18041518051518061518071518081500000126807 00000116405 00000077576 00000058298 00000058305 00001500000 00000450000 00000711015 00000187958 00000139900 000920000092000000000000000000000000000 1       40211         00000000000 00000219553 00000066254 00000006891 00000226003 00000066254 00000006891 ALT DEL PARADERO 1 DE HUASCAR FRENTE AL COLEGIO FRANCIS00000450000 00000286189 00000000000 00000000000 0           2ESTHER                   12FEB     ENE     DIC     000000OG000000000110000106743000001100000000000000 00000000000 00000000000 00000000000                                                                                                                                                                                                                                                           MARZO     2018                              0000003900ESGRANADOS_68@HOTMAIL.COM                                                                            9200*
116635524601CV360400052460100070758090005246010007075809            MARGARITA ALVAREZ LOPEZ                                     00000064599 CAL. UGARTE 1315                                                                                                        200601   SULLANA                       SULLANA               00000135401 00000135401 00000000000 201801192018021820180315201803182018041500000058362 00000058362 00000064599 00000001049 00000000000 00000000355 18041518051518061518071518081500000000159 00000000935 00000000937 00000000937 00000000937 00000200000 00000200000 00000125234 00000039305 00000099940 000920000092000000000000000000000000000 1       03574         00000000000 00000051947 00000005915 00000000500 00000051947 00000005915 00000000500 POR LA TIENDA DON MARIO CASA DE TRES PISOS CON CERAMICA00000200000 00000040958 00000400000 00000278133 0           1MARGARITA                11FEB     ENE     DIC     000000OG000000000090000025694000000450000000400000 00000161800 00000278133 00000000000                                                                                                                                                                                                                                                           ABRIL     2018                              0000003900EMAGUITO-2104@HOTMAIL.COM                                                                            9200*
144563524601STD60400052460100071005990005246010007100599            EDWARD FRANCISCO CHANGA HENRIQUEZ                           00000047198 AV. REPUBLICA DE CHILE 239 DPTO. 804                                                                                    150113   JESUS MARIA                   LIMA                  00000452802 00000000000 00000000000 201801192018021820180315201803182018041500000026694 00000030090 00000047198 00000043627 00000000000 00000001617 18041518051500000000000000000000000012984 00000005397 00000000000 00000000000 00000000000 00000500000 00000000000 00000017999 00000055454 00000026255 000920000092000000000000000000000000000 1       15847         00000000000 00000022803 00000003391 00000000500 00000026199 00000003391 00000000500 ALTURA DE LA EMBAJADA DE ARGENTINA                     00000000000 00000010210 00000500000 00000055216 0           1EDWARD                   11FEB     ENE     DIC     000000OG000000000060000009146000000300000000500000 00000494700 00000055216 00000000000                                                                                                                                                                                                                                                           ABRIL     2018                              0000003900EFRANKCH1@HOTMAIL.COM                                                                                9200*
077688524601CV260400052460100073784680005246010008877948            JUDY GONZALES AYALA                                         00000066000 CAL. SAN MIGUEL 603 URB. MARIANO MELGAR                                                                                 040109   MARIANO MELGAR                AREQUIPA              00000059000 00000000000 00000000000 201801192018021820180315201803182018041500000015282 00000015282 00000066000 00000023609 00000000000 00000002337 18041518051518061518071500000000000017319 00000017726 00000010526 00000010525 00000000000 00000125000 00000037500 00000132289 00000025946 00000092235 000920000092000000000000000000000000000 1       29368         00000000000 00000012445 00000002337 00000000500 00000012445 00000002337 00000000500 DEL MERCADO MARIANO MLEGAR 1 CUADRA ARRIBA             00000037500 00000045740 00000000000 00000000000 0           1JUDY                     11FEB     ENE     DIC     000000OG000000000050000007715000000250000000000000 00000000000 00000000000 00000000000                                                                                                                                                                                                                                                           MAYO      2018                              0000003900Esharitin2004@hotmail.com                                                                            9200*
138257524601CV260400052460100077028240005246010007702824            FIORELLA LISBETH ROMERO POMA                                00000012984 AV. SANTA ROSA 0 MZ: Q LOTE: 9 URB. LA CAMPINA                                                                          150108   CHORRILLOS                    LIMA                  00000487016 00000150000 00000000000 201801192018021820180315201803182018041500000059268 00000012984 00000012984 00000008518 00000004500 00000000000 00000000000000000000000000000000000000000 00000000000 00000000000 00000000000 00000000000 00000500000 00000150000 00000058966 00000013018 00000059000 000920000092000000000000000000000000000 1       43140         00000000000 00000003000 00000000000 00000005000 00000007984 00000000000 00000005000 A 2 CUADRAS DE DIVINCRI CHORRILLOS                     00000150000 00000000000 00000000000 00000000000 0           2FIORELLA                 22FEB     ENE     DIC     000000OG000000000030000000389000000150000000000000 00000000000 00000000000 00000000000                                                                                                                                                                                                                                                           JULIO     2018                              0000003900EFIORE_2506@HOTMAIL.COM                                                                              9200*
075062524601STD60400052460100078227470005246010007822747            VIOLETA MARTINEZ VARGAS                                     00000088992 MZ: C2 LOTE: 46 URB. LOS HEROES                                                                                         021809   NUEVO CHIMBOTE                SANTA                 00000000000 00000000000 00000000000 201801192018021820180315201803182018041500000005416 00000005416 00000088992 00000000500 00000000000 00000000019 18041518051518061518071518081500000006959 00000007504 00000007504 00000007504 00000007504 00000080000 00000000000 00000105973 00000000519 00000017500 000920000092000000000000000000000000000 1       32830         00000000000 00000004897 00000000019 00000000500 00000004897 00000000019 00000000500 AL COSTADO DEL COLEGIO ATUSPARIA                       00000000000 00000000000 00000000000 00000000000 0           1VIOLETA                  22FEB     ENE     DIC     000000OG000000000140000017446000000700000000000000 00000000000 00000000000 00000000000                                                                                                                                                                                                                                                           AGOSTO    2018                              0000003900Evioletamartinez5727@gmail.com                                                                       9200*
149107524601CV260400052460100086186070005246010008618607            GINA PAOLA SANCHEZ CERNA                                    00000341745 JR. RIO MAJES 5667 URB. VILLA EL NORTE                                                                                  150117   LOS OLIVOS                    LIMA                  00000038255 00000000000 00000000000 201801192018021820180315201803182018041500000121363 00000121363 00000341745 00000139528 00000000000 00000017564 18041518051518061518071518081500000079948 00000070710 00000057944 00000023521 00000013093 00000380000 00000000000 00000254694 00000186281 00000099230 000920000092000000000000000000000000000 1       40316         00000000000 00000094699 00000026164 00000000500 00000094699 00000026164 00000000500 ALTURA DEL COLEGIO PERU URUGUAY CRUCE AV MARANON       00000000000 00000114457 00001151000 00000459626 0           1GINA                     11FEB     ENE     DIC     000000OG000000000190000142241000000950000001151000 00000806400 00000459626 00000000000                                                                                                                                                                                                                                                           NOVIEMBRE 2018                              0000003900Eginasanchezcerna@gmail.com                                                                          9200*
158469524601STD60400052460100105395440005246010011183219            PIERINA GIULIANA SOTOMAYOR BIANCO                           00000194712 AV. CAMINO REAL 961 DPTO. 2001                                                                                          150131   SAN ISIDRO                    LIMA                  00000265288 00000000000 00000000000 201801192018021820180315201803182018041500000053368 00000102567 00000194712 00000026139 00000004000 00000006094 18041518051518061500000000000000000037148 00000037148 00000037150 00000000000 00000000000 00000460000 00000000000 00000198479 00000036233 00000040000 000920000092000000000000000000000000000 1       25627         00000000000 00000035182 00000011353 00000006833 00000084381 00000011353 00000006833                                                        00000000000 00000000000 00000000000 00000000000 0           2PIERINA                  21FEB     ENE     DIC     000000OG000000000190000037184000000950000000000000 00000000000 00000000000 00000000000                                                                                                                                                                                                                                                           MAYO      2018                              0000003900EPIERINA.SOTOMAYOR@VISONSPERU.COM                                                                    9200*
172997524601STD60400052460100119566630005246010011956663            CARLOS ALBERTO PALOMINO ARIAS                               00000111245 JR. CERRO BLANCO 360 DPTO. 301 URB. SAN IGNACIO DE MONTERRICO                                                           150140   SANTIAGO DE SURCO             LIMA                  00000118755 00000000000 00000000000 201801192018021820180315201803182018041500000004063 00000111245 00000111245 00000196651 00000000500 00000000000 00000000000000000000000000000000000000000 00000000000 00000000000 00000000000 00000000000 00000230000 00000000000 00000204994 00000197151 00000290900 000920000092000000000000000000000000000 1       09721         00000000000 00000003063 00000000000 00000001000 00000110245 00000000000 00000001000 ALTURA DEL HIPODROMO                                   00000000000 00000000000 00000000000 00000000000 0           1CARLOS                   11FEB     ENE     DIC     000000OG000000000370000109976000003700000000000000 00000000000 00000000000 00000000000                                                                                                                                                                                                                                                           JUNIO     2018                              0000003900E0                                                                                                   9200*
141134524601STD60400052460100121534840005246010012153484            YOVANA ALLINZO BRACAMONTE ROMERO                            00000045051 CAL. 22 SN MZ: LL LOTE: 35 URB. CARABAYLLO                                                                              150110   COMAS                         LIMA                  00000354949 00000000000 00000000000 201801192018021820180315201803182018041500000000683 00000000683 00000045051 00000000500 00000000000 00000000183 18041518051518061518071518081500000007237 00000009369 00000009369 00000009369 00000009369 00000400000 00000000000 00000053485 00000000683 00000009117 000920000092000000000000000000000000000 1       09736         00000000000 00000000000 00000000183 00000000500 00000000000 00000000183 00000000500 FRENTE DEL HOSPITAL DE LA SOLIDARIDAD                  00000000000 00000000000 00000000000 00000000000 0           2YOVANA                   22FEB     ENE     DIC     000000OG000000000060000009710000000300000000000000 00000000000 00000000000 00000000000                                                                                                                                                                                                                                                           AGOSTO    2018                              0000003900Eyovana_5410@hotmail.com                                                                             9200*
184596533958CV360400053395800001513180005339580001005687            CORINA ZUNIGA ARONES                                        00000200288 JR. CHIQUIAN 2345                                                                                                       150111   EL AGUSTINO                   LIMA                  00000749712 00000749712 00000000000 201801192018021820180315201803182018041500000012175 00000012175 00000200288 00000000590 00000000500 00000000000 18041518051518061518071518081500000014706 00000023263 00000024566 00000024566 00000024566 00000950000 00000950000 00000461298 00000001090 00000262100 000810000092000000000000000000000000000 1       40825         00000000000 00000011085 00000000000 00000001090 00000011085 00000000000 00000001090 ALT CUADRA 9 AV RIVA AGUERO                            00000950000 00000000000 00000000000 00000000000 0           1CORINA                   31FEB     ENE     DIC     000000OG000000000110000046384000001199000000000000 00000000000 00000000000 00000000000                                                                                                                                                                                                                                                           ENER0     2019                              0000003900Ecorizuar@gmail.com                                                                                  8100*
185358533958STD60400053395800002236790005339580000223679            ALVARO JAVIER MUNOZ NAJAR MALAGA                            00000061202 CAL. RIO VOLGA 0 MZ: L PRIMA LOTE: 8 URB. LAS PRADERAS                                                                  150114   LA MOLINA                     LIMA                  00000838798 00000000000 00000000000 201801192018021820180315201803182018041500000061202 00000061202 00000061202 00000000000 00000000000 00000000000 00000000000000000000000000000000000000000 00000000000 00000000000 00000000000 00000000000 00000900000 00000000000 00000066695 00000062432 00000067925 000810000092000000000000000000000000000 1       08780         00000000000 00000034315 00000026887 00000000000 00000034315 00000026887 00000000000 ALT CDRA 31 AV CORREGUIDOR                             00000000000 00000061202 00001341400 00001240890 0           1ALVARO                   11FEB     ENE     DIC     000000OG000000000330000483613000000000000001341400 00000234600 00001240890 00000000000                                                                                                                                                                                                                                                           AGOSTO    2018                              0000003900EALVAROMN@MNYA.COM.PE                                                                                8100*
179181533958STD60400053395800006726440005339580000672644            CINZIA HUAMANI MERINO                                       00000247368 JR. LA UNION 394                                                                                                        120107   CHILCA                        HUANCAYO              00000662632 00000000000 00000000000 201801192018021820180315201803182018041500000090185 00000090185 00000247368 00000000595 00000004500 00000008975 18041518051518061518071518081500000024430 00000024430 00000024430 00000024430 00000024431 00000910000 00000000000 00000372262 00000053185 00000178079 000810000092000000000000000000000000000 1       45117         00000000000 00000071256 00000013834 00000005095 00000071256 00000013834 00000005095                                                        00000000000 00000118416 00001492800 00000034246-0           2CINZIA                   22FEB     ENE     DIC     000000OG000000000100000027433000000590000001492800 00001676300 -0000003424-00000000000                                                                                                                                                                                                                                                           JULIO     2018                              0000003900Edeveloper_edutiva@hotmail.com                                                                       8100*
191228533958CV360400053395800010303050005339580001030305            LOURDES OTELIA DELGADO ACEVEDO                              00000074119 JR. JUNIN 1135                                                                                                          150141   SURQUILLO                     LIMA                  00000500881 00000000000 00000000000 201801192018021820180315201803182018041500000071329 00000074119 00000074119 00000000590 00000012500 00000000192 00000000000000000000000000000000000000000 00000000000 00000000000 00000000000 00000000000 00000575000 00000000000 00000060837 00000013282 00000000000 000810000092000000000000000000000000000 1       08853         00000000000 00000003636 00000001673 00000068810 00000003636 00000001673 00000068810 ALT CUADRA 44 DE AV PANAMA                             00000000000 00000000000 00000000000 00000000000 0           2LOURDES                  22FEB     ENE     DIC     000000OG000000000010000000000000000109000000000000 00000000000 00000000000 00000000000                                                                                                                                                                                                                                                           FEBRERO   2018                              0000003900E                                                                                                    8100*
189919533958STD60400053395800012971930005339580001297193            CHRISTIAN ALEKSEY SORIANO ALVA                              00000077607 CAL. PUMACURCO 170 URB. MARANGA                                                                                         150136   SAN MIGUEL                    LIMA                  00000272393 00000210000 00000000000 201801192018021820180315201803182018041500000004174 00000022851 00000077607 00000022775 00000000000 00000000000 18041518051518061518071500000000000014165 00000014749 00000014749 00000014746 00000000000 00000350000 00000210000 00000165732 00000022775 00000110900 000810000092000000000000000000000000000 1       40455         00000000000 00000003584 00000000000 00000000590 00000022261 00000000000 00000000590 ALTURA CUADRA 6 AV LOS PRECURSORES                     00000210000 00000000000 00000000000 00000000000 0           1CHRISTIAN                11FEB     ENE     DIC     000000OG000000000080000007086000000472000000000000 00000000000 00000000000 00000000000                                                                                                                                                                                                                                                           JULIO     2018                              0000003900ECH_SORIANO@HOTMAIL.COM                                                                              8100*
178692533958STD60400053395800013610070005339580001361007            PIERO RODRIGO GUSMAN ALDAVA                                 00000122217 JR. AYANCOCHA 380                                                                                                       100101   HUANUCO                       HUANUCO               00000452783 00000000000 00000000000 201801192018021820180315201803182018041500000083540 00000083540 00000122217 00000000605 00000000500 00000006388 18041518051518061518071518081500000008902 00000008902 00000008902 00000008902 00000008899 00000575000 00000000000 00000421624 00000007493 00000306900 000810000092000000000000000000000000000 1       47706         00000000000 00000076062 00000006388 00000001090 00000076062 00000006388 00000001090 CRUCE CON HUALLAYCO                                    00000000000 00000000000 00000000000 00000000000 0           1PIERO                    22FEB     ENE     DIC     000000OG000000000060000009864000000654000000000000 00000000000 00000000000 00000000000                                                                                                                                                                                                                                                           AGOSTO    2018                              0000003900EPIERITO2011@GMAIL.COM                                                                               8100*
188833533958STD60400053395800014722180005339580001472234            ANTONIA PRE FALCON                                          00000276655 MZ: G LOTE: 9 AAHH. SAUL CANTORAL HUAMANI                                                                               150132   SAN JUAN DE LURIGANCHO        LIMA                  00000213345 00000213345 00000000000 201801192018021820180315201803182018041500000123291 00000123291 00000276655 00000040426 00000000500 00000003215 18041518051518061518071518081500000043946 00000020502 00000015556 00000010850 00000010850 00000490000 00000294000 00000483459 00000093325 00000300129 000810000092000000000000000000000000000 1       10616         00000000000 00000107017 00000015184 00000001090 00000107017 00000015184 00000001090 ALT DEL PARADERO 5 DE MARISCAL CACERES POR EL COLEGIO C00000294000 00000049184 00000490000 00000422848 0           1ANTONIA                  13FEB     ENE     DIC     000000OG000000000130000096502000001417000000490000 00000116100 00000422848 00000000000                                                                                                                                                                                                                                                           OCTUBRE   2018                              0000003900Emayra_gvp@hotmail.com                                                                               8100*
180419533958CV360400053395800015752340005339580001575234            LUIS ENRIQUE REY MORAN                                      00000080647 AV. AV LINO 123 123 SECT.                                                                                               150201   BARRANCA                      BARRANCA              00000259353 00000259353 00000000000 201801192018021820180315201803182018041500000080647 00000080647 00000080647 00000000005 00000000000 00000000000 00000000000000000000000000000000000000000 00000000000 00000000000 00000000000 00000000000 00000340000 00000340000 00000093667 00000086980 00000100000 000810000092000000000000000000000000000 1       15855         00000000000 00000066602 00000014045 00000000000 00000066602 00000014045 00000000000                                                        00000340000 00000080647 00000920000 00000711312 0           3LUIS                     33FEB     ENE     DIC     000000OG000000000090000071467000000000000000920000 00000300600 00000711312 00000000000                                                                                                                                                                                                                                                           ABRIL     2018                              0000003900EPISCISREY50@gMAIL.COM                                                                               8100*
179663533958EMI60400053395800015783030005339580001578303            ALEXIS JOHAOMARCO ARENAS ZAVALETA                           00000140478 MZ: Q LOTE: 14 URB. CHIMU                                                                                               130101   TRUJILLO                      TRUJILLO              00000079522 00000000000 00000000000 201801192018021820180315201803182018041500000040565 00000049961 00000140478 00000193661 00000000000 00000003977 18041518051518061500000000000000000038135 00000038134 00000018150 00000000000 00000000000 00000220000 00000000000 00000068740 00000197638 00000125900 000810000092000000000000000000000000000 1       48330         00000000000 00000035998 00000003977 00000000590 00000045394 00000003977 00000000590 FRENTE AL PARQUE LAS ALMENDRAS                         00000000000 00000000000 00000000000 00000000000 0           3ALEXIS                   33FEB     ENE     DIC     000000OG000000000050000008871000000295000000000000 00000000000 00000000000 00000000000                                                                                                                                                                                                                                                           MAYO      2018                              0000003900EALEX_25.05@HOTMAIL.COM                                                                              8100*
