20180218000404071000006451701001000000000          0004040710000064517000404071000006451720180218   00000SALDO MES ANTERIOR                            00000007475 00000000000000000000     00000000000 00000000000 00000000000 00000000000 00000000000 201802180000000 00000O
20180208000404071000006451702001000187419604D404071000404071000006451700040407100000645172018020601600136CINEPLANET                              01852600000003000 00000000000000000000 T   00000000000 00000003000 00000000000 00000000000 00000000000 201802180000000 00000O
20180212000404071000006451702002000187420604D404071000404071000006451700040407100000645172018020901600136TIENDA OECHSLE CAJAMAR                  01190300000018130 00000000000000000000 T   00000000000 00000018130 00000000000 00000000000 00000000000 201802180000000 00000O
20180215000404071000006451704001000187421604C404071000404071000006451700040407100000645172018021502100000PAGO-PAGO-TIENDA OECHSLE CAJAMARCA      03212000000007500-00000000000000000000 T   00000000000 00000007500-00000000000 00000000000 00000000000 201802180000000 00000O
20180202000404071000006451705001000000000          000404071000006451700040407100000645172018020240100136MEMBRESIA ANUAL                               00000003900 00000000000000003900     00000000000 00000000000 00000000000 00000000000 00000000000 000000000000000 00000O
20180218000404071000006451705002000000000          000404071000006451700040407100000645172018021842500136SEGURO DE DESGRAVAMEN                         00000000500 00000000000000000500     00000000000 00000000000 00000000000 00000000000 00000000000 000000000000000 00000O
20180218000404071000113271901001000000000          0004040710001132719000404071000113271920180218   00000SALDO MES ANTERIOR                            00000068543 00000000000000000000     00000000000 00000000000 00000000000 00000000000 00000000000 201802180000000 00000O
20180122000404071000113271902001000330938604D404071000404071000113271900040407100011327192018012001600136OECHSLE JR DE LA UNION                  00622300000004784 00000000000000000000 T   00000000000 00000004784 00000000000 00000000000 00000000000 201802180000000 00000O
20180122000404071000113271902002000330939604D404071000404071000113271900040407100011327192018012012500136PLAZA VEA ACHO - LINEA                  01256600000022721 00000000000000000000 T   00000000000 00000022721 00000000000 00000000000 00000000000 201802180000000 00000O
20180123000404071000113271902003000330940604D404071000404071000113271900040407100011327192018012301500136Spotify P04B67C75D                      02089700000002890 00000000000000000000 T   00000000000 00000002890 00000000000 00000000000 00000000000 201802180000000 00000O
20180124000404071000113271902004000330941604C404071000404071000113271900040407100011327192017122320100300PF PAYU PROMART 2                       03805700000049900-00000000000000000000 T   00000000000 00000049900-00000000000 00000000000 00000000000 201802180000000 00000O
20180129000404071000113271902005000330942604D404071000404071000113271900040407100011327192018012501600136FRUTIX                                  00695500000001072 00000000000000000000 T   00000000000 00000001072 00000000000 00000000000 00000000000 201802180000000 00000O
20180129000404071000113271902006000330943604D404071000404071000113271900040407100011327192018012501600136POPEYES 06                              00733100000002580 00000000000000000000 T   00000000000 00000002580 00000000000 00000000000 00000000000 201802180000000 00000O
20180130000404071000113271902007000330945604D404071000404071000113271900040407100011327192018012812500136PLAZA VEA ACHO   LINEA                  00739500000000150 00000000000000000000 T   00000000000 00000000150 00000000000 00000000000 00000000000 201802180000000 00000O
20180205000404071000113271902008000330947604D404071000404071000113271900040407100011327192018020301600136SUC 62   MAESTRO BARRI                  00728300000008527 00000000000000000000 T   00000000000 00000008527 00000000000 00000000000 00000000000 201802180000000 00000O
20180205000404071000113271902009000330948604D404071000404071000113271900040407100011327192018020212500136PLAZA VEA ACHO   LINEA                  02909700000003586 00000000000000000000 T   00000000000 00000003586 00000000000 00000000000 00000000000 201802180000000 00000O
20180209000404071000113271902010000330949604D404071000404071000113271900040407100011327192018020701600136POPEYES PLAZA LIMA NOR                  00881700000003080 00000000000000000000 T   00000000000 00000003080 00000000000 00000000000 00000000000 201802180000000 00000O
20180209000404071000113271902011000330950604D404071000404071000113271900040407100011327192018020712500136PLAZA VEA ACHO   LINEA                  01173000000018328 00000000000000000000 T   00000000000 00000018328 00000000000 00000000000 00000000000 201802180000000 00000O
20180218000404071000113271903002000000000          0004040710001132719000404071000113271920180218   00000CUOTAS DEL MES (VER DETALLE)                  00000007406 00000000000000000000     00000000000 00000000000 00000000000 00000000000 00000000000 201802180000000 00000O
20180215000404071000113271904001000330951604C404071000404071000113271900040407100011327192018021502100000PAGO-PAGO-SUPER VEA JR DE LA UNION      00758500000040331-00000000000000000000 T   00000000000 00000040331-00000000000 00000000000 00000000000 201802180000000 00000O
20180218000404071000113271904097000000000000       0004040710001132719000404071000113271920180129   00000CUOTAS ADELANTADAS                            00000032206 00000000000000000000     00000000000 00000000000 00000000000 00000000000 00000000000 201802180000000 00000O
20180218000404071000113271905001000330954604D4040710004040710001132719                   2018021840200136INTERES REVOLVENTE - COMPRAS                  00000002583 00000000000000002583     00000000000 00000000000 00000000000 00000000000 00000000000 201802180000000 00000O
20180218000404071000113271905002000000000          000404071000113271900040407100011327192018021842500136SEGURO DE DESGRAVAMEN                         00000000500 00000000000000000500     00000000000 00000000000 00000000000 00000000000 00000000000 000000000000000 00000O
20180130000404071000113271906001000330944604D404071000404071000113271900040407100011327192018012808900300PLAZA VEA ACHO   LINEA                  00731000000008099 00000100200000003830 T   00000000000 00000008099 00000000000 00000000000 00000003830 201802180000000 08700O
20180131000404071000113271906002000330946604D404071000404071000113271900040407100011327192018012908900300SUPER VEA JR DE LA UNI                  00494400000007546 00000100200000003576 T   00000000000 00000007546 00000000000 00000000000 00000003576 201802180000000 08700O
20180218000404071000113271907999            T                                                            TOTAL PAGO DE CUOTAS DEL MES                                       00000007406                                                                                       
20180218000404071000113271908001000046432604D404071000404071000113271900040407100011327192017122380000300COMPRA CUOTAS                           03805700000049900 00200200200000026817  ADL00000000000 00000049900 00000026817 00000006524 00000026817 201802180000000 08700O
20180218000404071000113271908002000046432604D404071000404071000113271900040407100011327192017122880000300COMPRA CUOTAS                           01379700000010145 00200200200000005657  ADL00000000000 00000010145 00000005657 00000001170 00000005389 201802180000000 08700O
20180218000404071000113271908003000046432604D404071000404071000113271900040407100011327192018012880000300COMPRA CUOTAS                           00731000000008099 00100200200000000910  ADL00000000000 00000008099 00000000910 00000001820 00000008099 201802180000000 08700O
20180218000404071000113271908004000046432604D404071000404071000113271900040407100011327192018012980000300COMPRA CUOTAS                           00494400000007546 00100200200000000833  ADL00000000000 00000007546 00000000833 00000001666 00000007546 201802180000000 04130O
20180218000404071000113271908999            T                                                            TOTAL PAGO ADELANTADO                                              00000034217                                                                                       
20180218000404071000114069601001000000000          0004040710001140696000404071000114069620180218   00000SALDO MES ANTERIOR                            00000031604 00000000000000000000     00000000000 00000000000 00000000000 00000000000 00000000000 201802180000000 00000O
20180207000404071000114069602001000220605604C404071000404071000114069600040407100011406962017122320100300PLAZA VEA MOQUEGUA ELE                  01250700000165490-00000000000000000000 T   00000000000 00000165490-00000000000 00000000000 00000000000 201802180000000 00000O
20180218000404071000114069603002000000000          0004040710001140696000404071000114069620180218   00000CUOTAS DEL MES (VER DETALLE)                  00000012550 00000000000000000000     00000000000 00000000000 00000000000 00000000000 00000000000 201802180000000 00000O
20180215000404071000114069604001000220606604C404071000404071000114069600040407100011406962018021502100000PAGO-PAGO-PLAZA VEA MOQUEGUA LINEAL     03762800000023850-00000000000000000000 T   00000000000 00000023850-00000000000 00000000000 00000000000 201802180000000 00000O
20180218000404071000114069604097000000000000       0004040710001140696000404071000114069620180116   00000CUOTAS ADELANTADAS                            00000165490 00000000000000000000     00000000000 00000000000 00000000000 00000000000 00000000000 201802180000000 00000O
20180218000404071000114069605001000220610604D4040710004040710001140696                   2018021840200136INTERES REVOLVENTE - COMPRAS                  00000000659 00000000000000000659     00000000000 00000000000 00000000000 00000000000 00000000000 201802180000000 00000O
20180218000404071000114069605002000220611604D4040710004040710001140696                   2018021840209300INTERES COMPENSATORIO                         00000000022 00000000000000000022     00000000000 00000000000 00000000000 00000000000 00000000000 201802180000000 00000O
20180216000404071000114069605003000000000          000404071000114069600040407100011406962018021618600136PENALIDAD POR ATRASO                          00000004000 00000000000000004000     00000000000 00000000000 00000000000 00000000000 00000000000 000000000000000 00000O
20180218000404071000114069605004000000000          000404071000114069600040407100011406962018021841800136COMISION ENVIO EECC                           00000000500 00000000000000000500     00000000000 00000000000 00000000000 00000000000 00000000000 000000000000000 00000O
20180218000404071000114069605005000000000          000404071000114069600040407100011406962018021842500136SEGURO DE DESGRAVAMEN                         00000000500 00000000000000000500     00000000000 00000000000 00000000000 00000000000 00000000000 000000000000000 00000O
20170509000404071000114069606001000220595604D404071000404071000114069600040407100011406962017050700000300PLAZA VEA MOQUE                         01922100000019000 00001001200000001929 T   00000019000 00000000000 00000000000 00000000000 00000001929 201802180000000 08700O
20170519000404071000114069606002000220596604D404071000404071000114069600040407100011406962017051700000300PLAZA VEA MOQUE                         01163600000017024 00000901200000001581 T   00000017024 00000000000 00000000000 00000000000 00000001581 201802180000000 08700O
20170619000404071000114069606003000220597604D404071000404071000114069600040407100011406962017061500000300PLAZA VEA MOQUE                         02899500000017521 00000801200000001546 T   00000017521 00000000000 00000000000 00000000000 00000001546 201802180000000 08700O
20170918000404071000114069606004000220598604D404071000404071000114069600040407100011406962017091500000300COMPRA CUOTAS                           03491900000015000 00000501200000001122 T   00000015000 00000000000 00000000000 00000000000 00000001122 201802180000000 08700O
20171016000404071000114069606005000220599604D404071000404071000114069600040407100011406962017101400000300COMPRA CUOTAS                           02115300000023536 00000501200000001859 T   00000023536 00000000000 00000000000 00000000000 00000001859 201802180000000 08700O
20171117000404071000114069606006000220600604D404071000404071000114069600040407100011406962017111500000300COMPRA CUOTAS                           03901800000023692 00000401200000001781 T   00000023692 00000000000 00000000000 00000000000 00000001781 201802180000000 08700O
20171117000404071000114069606007000220601604D404071000404071000114069600040407100011406962017111500000300COMPRA CUOTAS                           03909500000001393 00000401200000000104 T   00000001393 00000000000 00000000000 00000000000 00000000104 201802180000000 08700O
20180102000404071000114069606008000220602604D404071000404071000114069600040407100011406962017123100000300COMPRA CUOTAS                           01480400000015000 00000201200000001055 T   00000015000 00000000000 00000000000 00000000000 00000001055 201802180000000 08700O
20180102000404071000114069606009000220603604D404071000404071000114069600040407100011406962017122800000300COMPRA CUOTAS                           01881300000009178 00000201200000000648 T   00000009178 00000000000 00000000000 00000000000 00000000648 201802180000000 08700O
20180118000404071000114069606010000220604604D404071000404071000114069600040407100011406962018011600000300COMPRA CUOTAS                           02072500000015000 00000101200000000925 T   00000015000 00000000000 00000000000 00000000000 00000000925 201802180000000 08700O
20180218000404071000114069607999            T                                                            TOTAL PAGO DE CUOTAS DEL MES                                       00000012550                                                                                       
20180218000404071000114069608001000031574604D404071000404071000114069600040407100011406962017050780000300PLAZA VEA MOQUE                         01922100000019000 01001101200000000528  ADL00000000000 00000019000 00000000528 00000015512 00000003932 201802180000000 08700O
20180218000404071000114069608002000031574604D404071000404071000114069600040407100011406962017051780000300PLAZA VEA MOQUE                         01163600000017024 00901001200000000647  ADL00000000000 00000017024 00000000647 00000013078 00000003279 201802180000000 08700O
20180218000404071000114069608003000031574604D404071000404071000114069600040407100011406962017061580000300PLAZA VEA MOQUE                         02899500000017521 00800901200000000836  ADL00000000000 00000017521 00000000836 00000013578 00000003216 201802180000000 08700O
20180218000404071000114069608004000031574604D404071000404071000114069600040407100011406962017091580000300COMPRA CUOTAS                           03491900000015000 00500601200000001104  ADL00000000000 00000015000 00000001104 00000011570 00000002360 201802180000000 08700O
20180218000404071000114069608005000031574604D404071000404071000114069600040407100011406962017101480000300COMPRA CUOTAS                           02115300000023536 00500601200000001691  ADL00000000000 00000023536 00000001691 00000018316 00000003726 201802180000000 08700O
20180218000404071000114069608006000031574604D404071000404071000114069600040407100011406962017111580000300COMPRA CUOTAS                           03909500000001393 00400401200000000056  ADL00000000000 00000001393 00000000056 00000000534 00000000104 201802180000000 08700O
20180218000404071000114069608007000031574604D404071000404071000114069600040407100011406962017111580000300COMPRA CUOTAS                           03901800000023692 00400401200000000954  ADL00000000000 00000023692 00000000954 00000009127 00000001781 201802180000000 04241O
20180218000404071000114069608008000031574604D404071000404071000114069600040407100011406962017122380000300COMPRA CUOTAS                           01250700000165490 00203603600000165490  ADL00000000000 00000165490 00000165490 00004017300 00000165490 201802180000000 08700O
20180218000404071000114069608009000031574604D404071000404071000114069600040407100011406962017122880000300COMPRA CUOTAS                           01881300000009178 00200201200000000444  ADL00000000000 00000009178 00000000444 00000003935 00000000648 201802180000000 08700O
20180218000404071000114069608010000031574604D404071000404071000114069600040407100011406962017123180000300COMPRA CUOTAS                           01480400000015000 00200201200000000722  ADL00000000000 00000015000 00000000722 00000006318 00000001055 201802180000000 08700O
20180218000404071000114069608011000031574604D404071000404071000114069600040407100011406962018011680000300COMPRA CUOTAS                           02072500000015000 00100101200000000803  ADL00000000000 00000015000 00000000803 00000005731 00000000925 201802180000000 08700O
20180218000404071000114069608999            T                                                            TOTAL PAGO ADELANTADO                                              00000173275                                                                                       
20180218000404071000157667501001000000000          0004040710001576675000404071000157667520180218   00000SALDO MES ANTERIOR                            00000082276 00000000000000000000     00000000000 00000000000 00000000000 00000000000 00000000000 201802180000000 00000O
20180125000404071000157667502001000447639604D404071000404071000157667500040407100015766752018012312500136PLAZA VEA RIMAC LINEAL                  01160900000001795 00000000000000000000 T   00000000000 00000001795 00000000000 00000000000 00000000000 201802180000000 00000O
20180126000404071000157667502002000447640604D404071000404071000157667500040407100015766752018012601600136COMPRA_PAGO_MES_ANT                     Q7246200000004777 00000000000000000000 T   00000000000 00000004777 00000000000 00000000000 00000000000 201802180000000 00000O
20180218000404071000157667503002000000000          0004040710001576675000404071000157667520180218   00000CUOTAS DEL MES (VER DETALLE)                  00000010018 00000000000000000000     00000000000 00000000000 00000000000 00000000000 00000000000 201802180000000 00000O
20180123000404071000157667504001000447638604C404071000404071000157667500040407100015766752018012302100000PAGO-PAGO-PLAZA VEA RIMAC LINEAL        01135900000037800-00000000000000000000 T   00000000000 00000037800-00000000000 00000000000 00000000000 201802180000000 00000O
20180215000404071000157667504002000447644604C404071000404071000157667500040407100015766752018021502100000PAGO-PAGO-PLAZA VEA CCIV LINEAL         02893300000044476-00000000000000000000 T   00000000000 00000044476-00000000000 00000000000 00000000000 201802180000000 00000O
20180218000404071000157667504097000000000000       0004040710001576675000404071000157667520171223   00000CUOTAS ADELANTADAS                            00000001087 00000000000000000000     00000000000 00000000000 00000000000 00000000000 00000000000 201802180000000 00000O
20180126000404071000157667505001000447641604C404071000404071000157667500040407100015766752018012602209301SALDO_PAGO_MES_ANT                      Q7246200000004777-00000000000000000000 T   00000000000 00000004777-00000000000 00000000000 00000000000 201802180000000 00000O
20180218000404071000157667505002000447649604D4040710004040710001576675                   2018021840209300INTERES COMPENSATORIO                         00000000234 00000000000000000234     00000000000 00000000000 00000000000 00000000000 00000000000 201802180000000 00000O
20180218000404071000157667505003000000000          000404071000157667500040407100015766752018021842500136SEGURO DE DESGRAVAMEN                         00000000500 00000000000000000500     00000000000 00000000000 00000000000 00000000000 00000000000 000000000000000 00000O
20180218000404071000157667505091000000000          000404071000157667500040407100015766752018021830100100CREDITO EFECTIVO - CAPITAL                    00000007948 00000401200000007948     00000000000 00000000000 00000000000 00000000000 00000000000 000000000000000 05992O
20180218000404071000157667505092000000000          000404071000157667500040407100015766752018021830700100CREDITO EFECTIVO - INTERESES                  00000003038 00000000000000003038     00000000000 00000000000 00000000000 00000000000 00000000000 000000000000000 00000O
20171226000404071000157667506001000447635604D404071000404071000157667500040407100015766752017122300000300COMPRA CUOTAS                           04133400000010460 00000200400000002008 T   00000010460 00000000000 00000000000 00000000026 00000001982 201802180000000 08700O
20180102000404071000157667506002000447636604D404071000404071000157667500040407100015766752017123100000300COMPRA CUOTAS                           02708200000006392 00000200300000002425 T   00000006392 00000000000 00000000000 00000000224 00000002201 201802180000000 08700O
20180102000404071000157667506003000447637604D404071000404071000157667500040407100015766752017123100000300COMPRA CUOTAS                           02758700000006993 00000200300000002653 T   00000006993 00000000000 00000000000 00000000245 00000002408 201802180000000 08700O
20180129000404071000157667506004000447642604D404071000404071000157667500040407100015766752018012708900300PLAZA VEA RISSO                         02952700000002290 00000100200000001275 T   00000000000 00000002290 00000000000 00000000195 00000001080 201802180000000 08700O
20180201000404071000157667506005000447643604D404071000404071000157667500040407100015766752018013008900300SUPER VEA CINE RIMAC                    01310100000002990 00000100200000001657 T   00000000000 00000002990 00000000000 00000000237 00000001420 201802180000000 08700O
20180218000404071000157667507999            T                                                            TOTAL PAGO DE CUOTAS DEL MES                                       00000010018                                                                                       
20180218000404071000157667508001000061286604D404071000404071000157667500040407100015766752017122380000300COMPRA CUOTAS                           04133400000010460 00200200400000001087  ADL00000000000 00000010460 00000001087 00000001920 00000002677 201802180000000 08700O
20180218000404071000157667508999            T                                                            TOTAL PAGO ADELANTADO                                              00000001087                                                                                       
20180218000404071000159669901001000000000          0004040710001596699000404071000159669920180218   00000SALDO MES ANTERIOR                            00000037818 00000000000000000000     00000000000 00000000000 00000000000 00000000000 00000000000 201802180000000 00000O
20180202000404071000159669902001000511867604C404071000404071000159669900040407100015966992018020222100000DEVOLUCION COBRO INCORRECTO             00471000000001000-00000000000000000000 T   00000000000 00000001000-00000000000 00000000000 00000000000 201802180000000 00000O
20180209000404071000159669902002000511868604C404071000404071000159669900040407100015966992018020922100000DEV EECC ENE-18                         00243700000000500-00000000000000000000 T   00000000000 00000000500-00000000000 00000000000 00000000000 201802180000000 00000O
20180217000404071000159669904001000511870604C404071000404071000159669900040407100015966992018021702100000PAGO-PAGO-OECHSLE PRIMAVERA             02295800000036400-00000000000000000000 T   00000000000 00000036400-00000000000 00000000000 00000000000 201802180000000 00000O
20180218000404071000159669904086000069399604D404071000404071000159669900040407100015966992018021886000300AJUSTE DE CAPITAL                             00000011014-00000000000000000000     00000000000 00000000000 00000000000 00000000000 00000000000 000000000000000 00000 
20180218000404071000159669904097000000000000       0004040710001596699000404071000159669920180116   00000CUOTAS ADELANTADAS                            00000022028 00000000000000000000     00000000000 00000000000 00000000000 00000000000 00000000000 201802180000000 00000O
20180218000404071000159669905001000511872604D4040710004040710001596699                   2018021840200136INTERES REVOLVENTE - COMPRAS                  00000001525 00000000000000001525     00000000000 00000000000 00000000000 00000000000 00000000000 201802180000000 00000O
20180218000404071000159669905002000511873604D4040710004040710001596699                   2018021840209300INTERES COMPENSATORIO                         00000000022 00000000000000000022     00000000000 00000000000 00000000000 00000000000 00000000000 201802180000000 00000O
20180216000404071000159669905003000000000          000404071000159669900040407100015966992018021618600136PENALIDAD POR ATRASO                          00000004000 00000000000000004000     00000000000 00000000000 00000000000 00000000000 00000000000 000000000000000 00000O
20180218000404071000159669905004000000000          000404071000159669900040407100015966992018021841800136COMISION ENVIO EECC                           00000000500 00000000000000000500     00000000000 00000000000 00000000000 00000000000 00000000000 000000000000000 00000O
20180218000404071000159669905005000000000          000404071000159669900040407100015966992018021842500136SEGURO DE DESGRAVAMEN                         00000000500 00000000000000000500     00000000000 00000000000 00000000000 00000000000 00000000000 000000000000000 00000O
20180218000404071000159669908001000069399604D404071000404071000159669900040407100015966992018011680000300COMPRA CUOTAS                           02300200000013813 00100200200000011014  ADL00000000000 00000013813 00000011014 00000002186 00000013813 201802180000000 09200O
20180218000404071000159669908999            T                                                            TOTAL PAGO ADELANTADO                                              00000011014                                                                                       
20180218000404071000302669501001000000000          0004040710003026695000404071000302669520180218   00000SALDO MES ANTERIOR                            00000091039 00000000000000000000     00000000000 00000000000 00000000000 00000000000 00000000000 201802180000000 00000O
20180126000404071000302669502001000209918604C404071000404071000302669500040407100030266952018012620900136RQ1261981                                     00000002395-00000000000000000000 T   00000000000 00000002395-00000000000 00000000000 00000000000 201802180000000 00000O
20180126000404071000302669502002000209919604C404071000404071000302669500040407100030266952018012620909136RQ1261981                                     00000012450-00000000000000000000 T   00000000000 00000012450-00000000000 00000000000 00000000000 201802180000000 00000O
20180126000404071000302669502003000209920604C404071000404071000302669500040407100030266952018012624200136RQ1261981                                     00000005500-00000000000000000000 T   00000000000 00000005500-00000000000 00000000000 00000000000 201802180000000 00000O
20180126000404071000302669502004000209921604C404071000404071000302669500040407100030266952018012624200136RQ1261981                                     00000015800-00000000000000000000 T   00000000000 00000015800-00000000000 00000000000 00000000000 201802180000000 00000O
20180130000404071000302669502005000209922604C404071000404071000302669500040407100030266952018013024209136RQ1261981                                     00000015800-00000000000000000000 T   00000000000 00000015800-00000000000 00000000000 00000000000 201802180000000 00000O
20180218000404071000302669505001000209926604D4040710004040710003026695                   2018021840200136INTERES REVOLVENTE - COMPRAS                  00000001982 00000000000000001982     00000000000 00000000000 00000000000 00000000000 00000000000 201802180000000 00000O
20180218000404071000302669505002000209927604D4040710004040710003026695                   2018021840209300INTERES COMPENSATORIO                         00000000772 00000000000000000772     00000000000 00000000000 00000000000 00000000000 00000000000 201802180000000 00000O
20180216000404071000302669505003000000000          000404071000302669500040407100030266952018021618600136PENALIDAD POR ATRASO                          00000005000 00000000000000005000     00000000000 00000000000 00000000000 00000000000 00000000000 000000000000000 00000O
20180218000404071000302669505004000000000          000404071000302669500040407100030266952018021841800136COMISION ENVIO EECC                           00000000500 00000000000000000500     00000000000 00000000000 00000000000 00000000000 00000000000 000000000000000 00000O
20180218000404071000302669505005000000000          000404071000302669500040407100030266952018021842500136SEGURO DE DESGRAVAMEN                         00000000500 00000000000000000500     00000000000 00000000000 00000000000 00000000000 00000000000 000000000000000 00000O
20180218000404071000362590001001000000000          0004040710003625900000404071000362590020180218   00000SALDO MES ANTERIOR                            00000028850 00000000000000000000     00000000000 00000000000 00000000000 00000000000 00000000000 201802180000000 00000O
20180119000404071000362590002001000181857604D404071000404071000362590000040407100036259002018011701600136TIENDA OECHSLE CAJAMAR                  01209200000004792 00000000000000000000 T   00000000000 00000004792 00000000000 00000000000 00000000000 201802180000000 00000O
20180125000404071000362590002002000181859604C404071000404071000362590000040407100036259002018011820100300PROMART CAJAMARCA                       01532600000055920-00000000000000000000 T   00000000000 00000055920-00000000000 00000000000 00000000000 201802180000000 00000O
20180218000404071000362590003002000000000          0004040710003625900000404071000362590020180218   00000CUOTAS DEL MES (VER DETALLE)                  00000040021 00000000000000000000     00000000000 00000000000 00000000000 00000000000 00000000000 201802180000000 00000O
20180214000404071000362590004001000181862604C404071000404071000362590000040407100036259002018021402100000PAGO-PAGO AG.IB 201802                  91232300000028850-00000000000000000000 T   00000000000 00000028850-00000000000 00000000000 00000000000 201802180000000 00000O
20180218000404071000362590004097000000000000       0004040710003625900000404071000362590020180118   00000CUOTAS ADELANTADAS                            00000051128 00000000000000000000     00000000000 00000000000 00000000000 00000000000 00000000000 201802180000000 00000O
20180218000404071000362590005001000000000          000404071000362590000040407100036259002018021841800136COMISION ENVIO EECC                           00000000500 00000000000000000500     00000000000 00000000000 00000000000 00000000000 00000000000 000000000000000 00000O
20180218000404071000362590005002000000000          000404071000362590000040407100036259002018021842500136SEGURO DE DESGRAVAMEN                         00000000500 00000000000000000500     00000000000 00000000000 00000000000 00000000000 00000000000 000000000000000 00000O
20170814000404071000362590006001000181855604D404071000404071000362590000040407100036259002017081000000300COMPRA CUOTAS                           00242500000159899 00000700700000028587 T   00000159899 00000000000 00000000000 00000001414 00000027173 201802180000000 09200O
20180118000404071000362590006002000181856604D404071000404071000362590000040407100036259002018011600000300COMPRA CUOTAS                           01545100000009800 00000100200000005304 T   00000009800 00000000000 00000000000 00000000547 00000004757 201802180000000 09200O
20180205000404071000362590006003000181860604D404071000404071000362590000040407100036259002018020308900300PRETTY WOMAN                            01946800000008600 00000100300000003254 T   00000000000 00000008600 00000000000 00000000646 00000002608 201802180000000 09200O
20180205000404071000362590006004000181861604D404071000404071000362590000040407100036259002018020308900300CALZADOS ANITA                          02025700000007600 00000100300000002876 T   00000000000 00000007600 00000000000 00000000571 00000002305 201802180000000 09200O
20180218000404071000362590007999            T                                                            TOTAL PAGO DE CUOTAS DEL MES                                       00000040021                                                                                       
20180218000404071000362590008001000026357604D404071000404071000362590000040407100036259002018011880000300COMPRA CUOTAS                           01532600000055920 00100600600000055920  ADL00000000000 00000055920 00000055920 00000075366 00000055920 201802180000000 09200O
20180218000404071000362590008999            T                                                            TOTAL PAGO ADELANTADO                                              00000055920                                                                                       
20180218000404071000363364901001000000000          0004040710003633649000404071000363364920180218   00000SALDO MES ANTERIOR                            00000058723 00000000000000000000     00000000000 00000000000 00000000000 00000000000 00000000000 201802180000000 00000O
20180209000404071000363364902001000000635604C404071000404071000363364900040407100036336492018020922100000DEV EECC ENE-18                         00243900000000500-00000000000000000000 T   00000000000 00000000500-00000000000 00000000000 00000000000 201802180000000 00000O
20180218000404071000363364903002000000000          0004040710003633649000404071000363364920180218   00000CUOTAS DEL MES (VER DETALLE)                  00000007758 00000000000000000000     00000000000 00000000000 00000000000 00000000000 00000000000 201802180000000 00000O
20180218000404071000363364905001000000639604D4040710004040710003633649                   2018021840209300INTERES COMPENSATORIO                         00000001590 00000000000000001590     00000000000 00000000000 00000000000 00000000000 00000000000 201802180000000 00000O
20180216000404071000363364905002000000000          000404071000363364900040407100036336492018021618600136PENALIDAD POR ATRASO                          00000005000 00000000000000005000     00000000000 00000000000 00000000000 00000000000 00000000000 000000000000000 00000O
20180218000404071000363364905003000000000          000404071000363364900040407100036336492018021841800136COMISION ENVIO EECC                           00000000500 00000000000000000500     00000000000 00000000000 00000000000 00000000000 00000000000 000000000000000 00000O
20180218000404071000363364905004000000000          000404071000363364900040407100036336492018021842500136SEGURO DE DESGRAVAMEN                         00000000500 00000000000000000500     00000000000 00000000000 00000000000 00000000000 00000000000 000000000000000 00000O
20171120000404071000363364906001000000634604D404071000404071000363364900040407100036336492017111600000300COMPRA CUOTAS                           00413600000020900 00000300300000007758 T   00000020900 00000000000 00000000000 00000000423 00000007335 201802180000000 09200O
20180218000404071000363364907999            T                                                            TOTAL PAGO DE CUOTAS DEL MES                                       00000007758                                                                                       
20180218000404071000371448001001000000000          0004040710003714480000404071000371448020180218   00000SALDO MES ANTERIOR                            00000048957 00000000000000000000     00000000000 00000000000 00000000000 00000000000 00000000000 201802180000000 00000O
20180129000404071000371448002001000086169604C404071000404071000371448000040407100037144802017123020100300PLAZA VEA HUANUCO LINE                  03816000000023120-00000000000000000000 T   00000000000 00000023120-00000000000 00000000000 00000000000 201802180000000 00000O
20180218000404071000371448003002000000000          0004040710003714480000404071000371448020180218   00000CUOTAS DEL MES (VER DETALLE)                  00000023460 00000000000000000000     00000000000 00000000000 00000000000 00000000000 00000000000 201802180000000 00000O
20180218000404071000371448004097000000000000       0004040710003714480000404071000371448020171230   00000CUOTAS ADELANTADAS                            00000023120 00000000000000000000     00000000000 00000000000 00000000000 00000000000 00000000000 201802180000000 00000O
20180218000404071000371448005001000086174604D4040710004040710003714480                   2018021840200136INTERES REVOLVENTE - COMPRAS                  00000001208 00000000000000001208     00000000000 00000000000 00000000000 00000000000 00000000000 201802180000000 00000O
20180218000404071000371448005002000086175604D4040710004040710003714480                   2018021840209300INTERES COMPENSATORIO                         00000000179 00000000000000000179     00000000000 00000000000 00000000000 00000000000 00000000000 201802180000000 00000O
20180216000404071000371448005003000000000          000404071000371448000040407100037144802018021618600136PENALIDAD POR ATRASO                          00000004000 00000000000000004000     00000000000 00000000000 00000000000 00000000000 00000000000 000000000000000 00000O
20180218000404071000371448005004000000000          000404071000371448000040407100037144802018021841800136COMISION ENVIO EECC                           00000000500 00000000000000000500     00000000000 00000000000 00000000000 00000000000 00000000000 000000000000000 00000O
20180218000404071000371448005005000000000          000404071000371448000040407100037144802018021842500136SEGURO DE DESGRAVAMEN                         00000000500 00000000000000000500     00000000000 00000000000 00000000000 00000000000 00000000000 000000000000000 00000O
20171218000404071000371448006001000086167604D404071000404071000371448000040407100037144802017121500000300COMPRA CUOTAS                           00579200000054900 00000200300000019424 T   00000054900 00000000000 00000000000 00000001149 00000018275 201802180000000 04241O
20171218000404071000371448006002000086168604D404071000404071000371448000040407100037144802017121500000300COMPRA CUOTAS                           00579200000010900 00000200300000004036 T   00000010900 00000000000 00000000000 00000000413 00000003623 201802180000000 04241O
20180218000404071000371448007999            T                                                            TOTAL PAGO DE CUOTAS DEL MES                                       00000023460                                                                                       
20180218000404071000371448008001000012949604D404071000404071000371448000040407100037144802017123080000300COMPRA CUOTAS                           03816000000023120 00200200200000012239  ADL00000000000 00000023120 00000012239 00000002578 00000012239 201802180000000 08700O
20180218000404071000371448008999            T                                                            TOTAL PAGO ADELANTADO                                              00000012239                                                                                       
20180218000404071000406736701001000000000          0004040710004067367000404071000406736720180218   00000SALDO MES ANTERIOR                            00000044444 00000000000000000000     00000000000 00000000000 00000000000 00000000000 00000000000 201802180000000 00000O
20180122000404071000406736702001000104493604D404071000404071000406736700040407100040673672018011812500136PLAZA VEA CHINCHA LINE                  00439800000021239 00000000000000000000 T   00000000000 00000021239 00000000000 00000000000 00000000000 201802180000000 00000O
20180124000404071000406736702002000104494604C404071000404071000406736700040407100040673672018011820100136PLAZA VEA CHINCHA LINE                  00439800000021239-00000000000000000000 T   00000000000 00000021239-00000000000 00000000000 00000000000 201802180000000 00000O
20180218000404071000406736703002000000000          0004040710004067367000404071000406736720180218   00000CUOTAS DEL MES (VER DETALLE)                  00000030771 00000000000000000000     00000000000 00000000000 00000000000 00000000000 00000000000 201802180000000 00000O
20180218000404071000406736705001000104500604D4040710004040710004067367                   2018021840209300INTERES COMPENSATORIO                         00000000183 00000000000000000183     00000000000 00000000000 00000000000 00000000000 00000000000 201802180000000 00000O
20180216000404071000406736705002000000000          000404071000406736700040407100040673672018021618600136PENALIDAD POR ATRASO                          00000004000 00000000000000004000     00000000000 00000000000 00000000000 00000000000 00000000000 000000000000000 00000O
20180218000404071000406736705003000000000          000404071000406736700040407100040673672018021842500136SEGURO DE DESGRAVAMEN                         00000000500 00000000000000000500     00000000000 00000000000 00000000000 00000000000 00000000000 000000000000000 00000O
20180102000404071000406736706001000104492604D404071000404071000406736700040407100040673672017122800000300COMPRA CUOTAS                           00561600000029285 00000200200000016333 T   00000029285 00000000000 00000000000 00000000776 00000015557 201802180000000 08700O
20180129000404071000406736706002000104495604D404071000404071000406736700040407100040673672018012508900300PLAZA VEA CHINCHA LINE                  00770500000022022 00000100200000012313 T   00000000000 00000022022 00000000000 00000001958 00000010355 201802180000000 08700O
20180129000404071000406736706003000104496604D404071000404071000406736700040407100040673672018012508900300PLAZA VEA CHINCHA LINE                  00770500000003990 00000100200000002125 T   00000000000 00000003990 00000000000 00000000196 00000001929 201802180000000 08700O
20180218000404071000406736707999            T                                                            TOTAL PAGO DE CUOTAS DEL MES                                       00000030771                                                                                       
20180218000404071000450658801001000000000          0004040710004506588000404071000450658820180218   00000SALDO MES ANTERIOR                            00000020774 00000000000000000000     00000000000 00000000000 00000000000 00000000000 00000000000 201802180000000 00000O
20180122000404071000450658802001000283143604D404071000404071000450658800040407100045065882018012001600136INKAFARMA TACNA 16                      01141200000002500 00000000000000000000 T   00000000000 00000002500 00000000000 00000000000 00000000000 201802180000000 00000O
20180209000404071000450658802002000283147604C404071000404071000450658800040407100045065882018020922100000DEV EECC ENE-18                         00244000000000500-00000000000000000000 T   00000000000 00000000500-00000000000 00000000000 00000000000 201802180000000 00000O
20180218000404071000450658803002000000000          0004040710004506588000404071000450658820180218   00000CUOTAS DEL MES (VER DETALLE)                  00000019429 00000000000000000000     00000000000 00000000000 00000000000 00000000000 00000000000 201802180000000 00000O
20180215000404071000450658804001000283148604C404071000404071000450658800040407100045065882018021502100000PAGO-PAGO-PLAZA VEA TACNA LINEAL        02911100000020280-00000000000000000000 T   00000000000 00000020280-00000000000 00000000000 00000000000 201802180000000 00000O
20180218000404071000450658804097000000000000       0004040710004506588000404071000450658820171102   00000CUOTAS ADELANTADAS                            00000013317 00000000000000000000     00000000000 00000000000 00000000000 00000000000 00000000000 201802180000000 00000O
20180218000404071000450658805001000000000          000404071000450658800040407100045065882018021841800136COMISION ENVIO EECC                           00000000500 00000000000000000500     00000000000 00000000000 00000000000 00000000000 00000000000 000000000000000 00000O
20180218000404071000450658805002000000000          000404071000450658800040407100045065882018021842500136SEGURO DE DESGRAVAMEN                         00000000500 00000000000000000500     00000000000 00000000000 00000000000 00000000000 00000000000 000000000000000 00000O
20171106000404071000450658806001000283134604D404071000404071000450658800040407100045065882017110300000300COMPRA CUOTAS                           00072600000016900 00000400800000002741 T   00000016900 00000000000 00000000000 00000000608 00000002133 201802180000000 09200O
20171106000404071000450658806002000283135604D404071000404071000450658800040407100045065882017110300000300COMPRA CUOTAS                           00092300000007609 00000400600000001563 T   00000007609 00000000000 00000000000 00000000219 00000001344 201802180000000 09200O
20171110000404071000450658806003000283136604D404071000404071000450658800040407100045065882017110800000300CONS.GAS.CUOTA                          00242400000005990 00000400500000001426 T   00000005990 00000000000 00000000000 00000000137 00000001289 201802180000000 09200O
20171113000404071000450658806004000283137604D404071000404071000450658800040407100045065882017111000000300CONS.GAS.CUOTA                          00972900000005990 00000400500000001420 T   00000005990 00000000000 00000000000 00000000136 00000001284 201802180000000 09200O
20171115000404071000450658806005000283138604D404071000404071000450658800040407100045065882017111300000300COMPRA CUOTAS                           01069600000007274 00000400600000001467 T   00000007274 00000000000 00000000000 00000000206 00000001261 201802180000000 09200O
20171115000404071000450658806006000283139604D404071000404071000450658800040407100045065882017111300000300COMPRA CUOTAS                           01116800000007400 00000400600000001492 T   00000007400 00000000000 00000000000 00000000209 00000001283 201802180000000 09200O
20171116000404071000450658806007000283140604D404071000404071000450658800040407100045065882017111400000300CONS.GAS.CUOTA                          00140000000005000 00000400500000001177 T   00000005000 00000000000 00000000000 00000000113 00000001064 201802180000000 09200O
20171201000404071000450658806008000283141604D404071000404071000450658800040407100045065882017112900000300CONS.GAS.CUOTA                          01281900000004000 00000300500000000968 T   00000004000 00000000000 00000000000 00000000136 00000000832 201802180000000 09200O
20171211000404071000450658806009000283142604D404071000404071000450658800040407100045065882017120700000300COMPRA CUOTAS                           00124700000006900 00000300500000001646 T   00000006900 00000000000 00000000000 00000000231 00000001415 201802180000000 09200O
20180131000404071000450658806010000283144604D404071000404071000450658800040407100045065882018012981700300EESS MELSA                              00037500000003000 00000100300000001145 T   00000000000 00000003000 00000000000 00000000254 00000000891 201802180000000 09200O
20180202000404071000450658806011000283145604D404071000404071000450658800040407100045065882018013108900300PLAZA VEA TACNA LINEAL                  02096800000023993 00000102000000002043 T   00000000000 00000023993 00000000000 00000001862 00000000181 201802180000000 08700O
20180205000404071000450658806012000283146604D404071000404071000450658800040407100045065882018020108900300CRISTINA                                03467200000008000 00000100400000002341 T   00000000000 00000008000 00000000000 00000000632 00000001709 201802180000000 09200O
20180218000404071000450658807999            T                                                            TOTAL PAGO DE CUOTAS DEL MES                                       00000019429                                                                                       
20180218000404071000450658808001000040200604D404071000404071000450658800040407100045065882017110180000300COMPRA CUOTAS                           00182800000007080 00400700700000004498  ADL00000000000 00000007080 00000004498 00000007616 00000004498 201802180000000 09200O
20180218000404071000450658808002000040200604D404071000404071000450658800040407100045065882017110280000300COMPRA CUOTAS                           01558700000007190 00400900900000005312  ADL00000000000 00000007190 00000005312 00000014358 00000005312 201802180000000 08700O
20180218000404071000450658808003000040200604D404071000404071000450658800040407100045065882017110280000300COMPRA CUOTAS                           00434500000009524 00400600800000003507  ADL00000000000 00000009524 00000003507 00000008178 00000003747 201802180000000 09200O
20180218000404071000450658808999            T                                                            TOTAL PAGO ADELANTADO                                              00000013317                                                                                       
20180218000404071000474823001001000000000          0004040710004748230000404071000474823020180218   00000SALDO MES ANTERIOR                            00000090397 00000000000000000000     00000000000 00000000000 00000000000 00000000000 00000000000 201802180000000 00000O
20180124000404071000474823002001000044591604C404071000404071000474823000040407100047482302017120220100300PLAZA VEA CJMRCA ELECT                  03122500000059990-00000000000000000000 T   00000000000 00000059990-00000000000 00000000000 00000000000 201802180000000 00000O
20180215000404071000474823002002000044592604D404071000404071000474823000040407100047482302018011601600136SEGUROS OH PROTECCION TARJETA           06241500000000690 00000000000000000000 T   00000000000 00000000690 00000000000 00000000000 00000000000 201802180000000 00000O
20180218000404071000474823003002000000000          0004040710004748230000404071000474823020180218   00000CUOTAS DEL MES (VER DETALLE)                  00000006806 00000000000000000000     00000000000 00000000000 00000000000 00000000000 00000000000 201802180000000 00000O
20180218000404071000474823004001000044594604C404071000404071000474823000040407100047482302018021802100000PAGO-PAGO-TIENDA OECHSLE CAJAMARCA      02218900000013150-00000000000000000000 T   00000000000 00000013150-00000000000 00000000000 00000000000 201802180000000 00000O
20180218000404071000474823004097000000000000       0004040710004748230000404071000474823020180106   00000CUOTAS ADELANTADAS                            00000000953 00000000000000000000     00000000000 00000000000 00000000000 00000000000 00000000000 201802180000000 00000O
20180218000404071000474823005001000044597604D4040710004040710004748230                   2018021840200136INTERES REVOLVENTE - COMPRAS                  00000000341 00000000000000000341     00000000000 00000000000 00000000000 00000000000 00000000000 201802180000000 00000O
20180218000404071000474823005002000044598604D4040710004040710004748230                   2018021840209300INTERES COMPENSATORIO                         00000001697 00000000000000001697     00000000000 00000000000 00000000000 00000000000 00000000000 201802180000000 00000O
20180216000404071000474823005003000000000          000404071000474823000040407100047482302018021618600136PENALIDAD POR ATRASO                          00000004000 00000000000000004000     00000000000 00000000000 00000000000 00000000000 00000000000 000000000000000 00000O
20180218000404071000474823005004000000000          000404071000474823000040407100047482302018021842500136SEGURO DE DESGRAVAMEN                         00000000500 00000000000000000500     00000000000 00000000000 00000000000 00000000000 00000000000 000000000000000 00000O
20171229000404071000474823006001000044589604D404071000404071000474823000040407100047482302017122700000300COMPRA CUOTAS                           00966800000008500 00000200300000002952 T   00000008500 00000000000 00000000000 00000000000 00000002952 201802180000000 09200O
20180108000404071000474823006002000044590604D404071000404071000474823000040407100047482302018010600000300COMPRA CUOTAS                           00704800000011300 00000200300000003854 T   00000011300 00000000000 00000000000 00000000000 00000003854 201802180000000 09200O
20180218000404071000474823007999            T                                                            TOTAL PAGO DE CUOTAS DEL MES                                       00000006806                                                                                       
20180218000404071000474823008001000006579604D404071000404071000474823000040407100047482302017122780000300COMPRA CUOTAS                           00966800000008500 00200300300000000492  ADL00000000000 00000008500 00000000492 00000002596 00000006040 201802180000000 09200O
20180218000404071000474823008002000006579604D404071000404071000474823000040407100047482302018010680000300COMPRA CUOTAS                           00704800000011300 00200300300000000461  ADL00000000000 00000011300 00000000461 00000002982 00000007885 201802180000000 08700O
20180218000404071000474823008999            T                                                            TOTAL PAGO ADELANTADO                                              00000000953                                                                                       
20180218000404071000509580501001000000000          0004040710005095805000404071000509580520180218   00000SALDO MES ANTERIOR                            00000092307 00000000000000000000     00000000000 00000000000 00000000000 00000000000 00000000000 201802180000000 00000O
20180215000404071000509580502001000175750604D404071000404071000509580500040407100050958052018021001600136SEGUROS OH PROTECCION TARJETA           07200000000000690 00000000000000000000 T   00000000000 00000000690 00000000000 00000000000 00000000000 201802180000000 00000O
20180218000404071000509580503002000000000          0004040710005095805000404071000509580520180218   00000CUOTAS DEL MES (VER DETALLE)                  00000053254 00000000000000000000     00000000000 00000000000 00000000000 00000000000 00000000000 201802180000000 00000O
20180202000404071000509580504001000175749604C404071000404071000509580500040407100050958052018020202100000PAGO-PAGO-PLAZA VEA CHICLAYO LINEAL     02096900000016650-00000000000000000000 T   00000000000 00000016650-00000000000 00000000000 00000000000 201802180000000 00000O
20180218000404071000509580505001000175755604D4040710004040710005095805                   2018021840200136INTERES REVOLVENTE - COMPRAS                  00000000046 00000000000000000046     00000000000 00000000000 00000000000 00000000000 00000000000 201802180000000 00000O
20180218000404071000509580505002000175756604D4040710004040710005095805                   2018021840209300INTERES COMPENSATORIO                         00000001462 00000000000000001462     00000000000 00000000000 00000000000 00000000000 00000000000 201802180000000 00000O
20180216000404071000509580505003000000000          000404071000509580500040407100050958052018021618600136PENALIDAD POR ATRASO                          00000004500 00000000000000004500     00000000000 00000000000 00000000000 00000000000 00000000000 000000000000000 00000O
20180218000404071000509580505004000000000          000404071000509580500040407100050958052018021842500136SEGURO DE DESGRAVAMEN                         00000000500 00000000000000000500     00000000000 00000000000 00000000000 00000000000 00000000000 000000000000000 00000O
20171213000404071000509580506001000175744604D404071000404071000509580500040407100051058772017121100000300COMPRA CUOTAS                           01919800000090841 00000300300000032529 A   00000090841 00000000000 00000000000 00000000993 00000031536 201802180000000 04900O
20171213000404071000509580506002000175745604D404071000404071000509580500040407100051058772017121100000300COMPRA CUOTAS                           01919800000002990 00000300300000001102 A   00000002990 00000000000 00000000000 00000000046 00000001056 201802180000000 04900O
20171219000404071000509580506003000175746604D404071000404071000509580500040407100051058772017121700000300COMPRA CUOTAS                           02147800000031290 00000200300000011546 A   00000031290 00000000000 00000000000 00000001183 00000010363 201802180000000 08700O
20171219000404071000509580506004000175747604D404071000404071000509580500040407100051058772017121700000300COMPRA CUOTAS                           02468900000006784 00000200300000002503 A   00000006784 00000000000 00000000000 00000000256 00000002247 201802180000000 08700O
20180105000404071000509580506005000175748604D404071000404071000509580500040407100051058772018010300000300COMPRA CUOTAS                           02438100000010100 00000200200000005574 A   00000010100 00000000000 00000000000 00000000264 00000005310 201802180000000 08700O
20180218000404071000509580507999            T                                                            TOTAL PAGO DE CUOTAS DEL MES                                       00000053254                                                                                       
20180218000404071000538858001001000000000          0004040710005388580000404071000538858020180218   00000SALDO MES ANTERIOR                            00000046300 00000000000000000000     00000000000 00000000000 00000000000 00000000000 00000000000 201802180000000 00000O
20180218000404071000538858003002000000000          0004040710005388580000404071000538858020180218   00000CUOTAS DEL MES (VER DETALLE)                  00000024787 00000000000000000000     00000000000 00000000000 00000000000 00000000000 00000000000 201802180000000 00000O
20180215000404071000538858004001000101967604C404071000404071000590976500040407100059097652018021502100000PAGO-PAGO-OECHSLE ICA                   01708000000046300-00000000000000000000 T   00000000000 00000046300-00000000000 00000000000 00000000000 201802180000000 00000O
20180218000404071000538858004097000000000000       0004040710005388580000404071000538858020171209   00000CUOTAS ADELANTADAS                            00000010216 00000000000000000000     00000000000 00000000000 00000000000 00000000000 00000000000 201802180000000 00000O
20180218000404071000538858005001000000000          000404071000538858000040407100053885802018021841800136COMISION ENVIO EECC                           00000000500 00000000000000000500     00000000000 00000000000 00000000000 00000000000 00000000000 000000000000000 00000O
20180218000404071000538858005002000000000          000404071000538858000040407100053885802018021842500136SEGURO DE DESGRAVAMEN                         00000000500 00000000000000000500     00000000000 00000000000 00000000000 00000000000 00000000000 000000000000000 00000O
20180218000404071000538858005091000000000          000404071000538858000040407100053885802018021830100100CREDITO EFECTIVO - CAPITAL                    00000009198 00000000000000009198     00000000000 00000000000 00000000000 00000000000 00000000000 000000000000000 00000O
20180218000404071000538858005092000000000          000404071000538858000040407100053885802018021830700100CREDITO EFECTIVO - INTERESES                  00000001447 00000000000000001447     00000000000 00000000000 00000000000 00000000000 00000000000 000000000000000 00000O
20180103000404071000538858006001000101964604D404071000404071000590976500040407100053885802017101800000300TRASLADO DE SALDO OFICINA PRINCIPAL T01 W9278600000031990 00000400400000008610 T   00000031990 00000000000 00000000000 00000000000 00000008610 201802180000000 04241O
20180103000404071000538858006002000101965604D404071000404071000590976500040407100053885802017101800000300TRASLADO DE SALDO OFICINA PRINCIPAL T02 W9278700000008990 00000400400000002558 T   00000008990 00000000000 00000000000 00000000000 00000002558 201802180000000 08700O
20180103000404071000538858006003000101966604D404071000404071000590976500040407100053885802017120900000300TRASLADO DE SALDO OFICINA PRINCIPAL T01 W9278800000229200 00000301500000013619 T   00000229200 00000000000 00000000000 00000000000 00000013619 201802180000000 04241O
20180218000404071000538858007999            T                                                            TOTAL PAGO DE CUOTAS DEL MES                                       00000024787                                                                                       
20180218000404071000538858008001000015145604D404071000404071000538858000040407100053885802017101880000300OFICINA PRINCIPAL T01                   W9278600000031990 00400400400000000240  ADL00000000000 00000031990 00000000240 00000003410 00000008610 201802180000000 08700O
20180218000404071000538858008002000015145604D404071000404071000538858000040407100053885802017101880000300OFICINA PRINCIPAL T02                   W9278700000008990 00400400400000000127  ADL00000000000 00000008990 00000000127 00000001756 00000002558 201802180000000 04241O
20180218000404071000538858008003000015145604D404071000404071000538858000040407100053885802017120980000300OFICINA PRINCIPAL T01                   W9278800000229200 00300401500000009849  ADL00000000000 00000229200 00000009849 00000122240 00000027036 201802180000000 08700O
20180218000404071000538858008999            T                                                            TOTAL PAGO ADELANTADO                                              00000010216                                                                                       
20180218000404071000567929301001000000000          0004040710005679293000404071000567929320180218   00000SALDO MES ANTERIOR                            00000002000 00000000000000000000     00000000000 00000000000 00000000000 00000000000 00000000000 201802180000000 00000O
20180130000404071000567929302001000506279604D404071000404071000567929300040407100056792932018012812500136PLAZA VEA ATE                           02435300000014627 00000000000000000000 T   00000000000 00000014627 00000000000 00000000000 00000000000 201802180000000 00000O
20180218000404071000567929303002000000000          0004040710005679293000404071000567929320180218   00000CUOTAS DEL MES (VER DETALLE)                  00000083885 00000000000000000000     00000000000 00000000000 00000000000 00000000000 00000000000 201802180000000 00000O
20180126000404071000567929304001000506277604C404071000404071000567929300092020200064222292018012502100000PAGO-PLAZA VEA ATE                      P0958400000005900-00000000000000000000 T   00000000000 00000005900-00000000000 00000000000 00000000000 201802180000000 00000O
20180128000404071000567929304002000506278604C404071000404071000567929300040407100056792932018012802100000PAGO-PAGO-PLAZA VEA ATE                 02441000000014627-00000000000000000000 T   00000000000 00000014627-00000000000 00000000000 00000000000 201802180000000 00000O
20180218000404071000567929304097000000000000       0004040710005679293000404071000567929320180129   00000CUOTAS ADELANTADAS                            00000003900 00000000000000000000     00000000000 00000000000 00000000000 00000000000 00000000000 201802180000000 00000O
20180218000404071000567929305001000000000          000404071000567929300040407100056792932018021842500136SEGURO DE DESGRAVAMEN                         00000000500 00000000000000000500     00000000000 00000000000 00000000000 00000000000 00000000000 000000000000000 00000O
20180131000404071000567929306001000506280604D404071000404071000567929300040407100056792932018012908900300HIPERMERCADO CERAMICO                   00951400000696501 00000101200000083885 T   00000000000 00000696501 00000000000 00000059172 00000024713 201802180000000 09200O
20180218000404071000567929307999            T                                                            TOTAL PAGO DE CUOTAS DEL MES                                       00000083885                                                                                       
20180218000404071000567929308001000068737604D404071000404071000567929300040407100056792932018012980000300COMPRA CUOTAS                           00951400000696501 00100101200000000002  ADL00000000000 00000696501 00000000002 00000310137 00000024715 201802180000000 07500O
20180218000404071000567929308999            T                                                            TOTAL PAGO ADELANTADO                                              00000000002                                                                                       
20180218000524601000231234801001000000000          0005246010002312348000524601000231234820180218   00000SALDO MES ANTERIOR                            00000096585 00000000000000000000     00000000000 00000000000 00000000000 00000000000 00000000000 201802180000000 00000O
20180218000524601000231234803002000000000          0005246010002312348000524601000231234820180218   00000CUOTAS DEL MES (VER DETALLE)                  00000013554 00000000000000000000     00000000000 00000000000 00000000000 00000000000 00000000000 201802180000000 00000O
20180218000524601000231234805001000130002604D5246010005246010002312348                   2018021840200136INTERES REVOLVENTE - COMPRAS                  00000000292 00000000000000000292     00000000000 00000000000 00000000000 00000000000 00000000000 201802180000000 00000O
20180218000524601000231234805002000130003604D5246010005246010002312348                   2018021840209300INTERES COMPENSATORIO                         00000003046 00000000000000003046     00000000000 00000000000 00000000000 00000000000 00000000000 201802180000000 00000O
20180216000524601000231234805003000000000          000524601000231234800052460100023123482018021618600136PENALIDAD POR ATRASO                          00000005000 00000000000000005000     00000000000 00000000000 00000000000 00000000000 00000000000 000000000000000 00000O
20180218000524601000231234805004000000000          000524601000231234800052460100023123482018021841800136COMISION ENVIO EECC                           00000000500 00000000000000000500     00000000000 00000000000 00000000000 00000000000 00000000000 000000000000000 00000O
20180218000524601000231234805005000000000          000524601000231234800052460100023123482018021842500136SEGURO DE DESGRAVAMEN                         00000000500 00000000000000000500     00000000000 00000000000 00000000000 00000000000 00000000000 000000000000000 00000O
20171030000524601000231234806001000129997604D524601000524601000231234800052460100023123482017102900000300REST LA VERDAD DE LA MILANESA           F0071800000021700 00000200200000013554 T   00000021700 00000000000 00000000000 00000000670 00000012884 201802180000000 09200O
20180218000524601000231234807999            T                                                            TOTAL PAGO DE CUOTAS DEL MES                                       00000013554                                                                                       
20180218000524601000237949501001000000000          0005246010002379495000524601000237949520180218   00000SALDO MES ANTERIOR                            00000125873 00000000000000000000     00000000000 00000000000 00000000000 00000000000 00000000000 201802180000000 00000O
20180218000524601000237949503002000000000          0005246010002379495000524601000237949520180218   00000CUOTAS DEL MES (VER DETALLE)                  00000019353 00000000000000000000     00000000000 00000000000 00000000000 00000000000 00000000000 201802180000000 00000O
20180206000524601000237949504001000166117604C524601000524601001082478900052460100108247892018020502100000PAGO-PLAZA VEA PUENTE PIEDRA            P0943100000125873-00000000000000000000 T   00000000000 00000125873-00000000000 00000000000 00000000000 201802180000000 00000O
20180218000524601000237949504097000000000000       0005246010010860791000524601001086079120171202   00000CUOTAS ADELANTADAS                            00000001175 00000000000000000000     00000000000 00000000000 00000000000 00000000000 00000000000 201802180000000 00000O
20180218000524601000237949505001000166121604D5246010005246010010824789                   2018021840209300INTERES COMPENSATORIO                         00000001515 00000000000000001515     00000000000 00000000000 00000000000 00000000000 00000000000 201802180000000 00000O
20180218000524601000237949505002000000000          000524601000237949500052460100023794952018021840300136IMPUESTO ITF PAGO                             00000000005 00000000000000000005     00000000000 00000000000 00000000000 00000000000 00000000000 000000000000000 00000O
20180218000524601000237949505003000000000          000524601000237949500052460100023794952018021841800136COMISION ENVIO EECC                           00000000500 00000000000000000500     00000000000 00000000000 00000000000 00000000000 00000000000 000000000000000 00000O
20180218000524601000237949505004000000000          000524601000237949500052460100023794952018021842500136SEGURO DE DESGRAVAMEN                         00000000500 00000000000000000500     00000000000 00000000000 00000000000 00000000000 00000000000 000000000000000 00000O
20171029000524601000237949506001000166115604D524601000524601001082478900052460100108607912017102800000301PLAZA VEA PUENTE PIEDRA                 C0530000000015000 00000200200000009386 A   00000015000 00000000000 00000000000 00000000464 00000008922 201802180000000 09200O
20171203000524601000237949506002000166116604D524601000524601001082478900052460100108607912017120200000300E.S.HERCO                               R0150300000038000 00000300400000009967 A   00000038000 00000000000 00000000000 00000001033 00000008934 201802180000000 09200O
20180218000524601000237949507999            T                                                            TOTAL PAGO DE CUOTAS DEL MES                                       00000019353                                                                                       
20180218000524601000237949508001000154817604D524601000524601001086079100052460100108607912017120280000300E.S.HERCO                               R0150300000038000 00300300400000001175  ADL00000000000 00000038000 00000001175 00000006566 00000010070 201802180000000 08700O
20180218000524601000237949508999            T                                                            TOTAL PAGO ADELANTADO                                              00000001175                                                                                       
20180218000524601000258992901001000000000          0005246010002589929000524601000258992920180218   00000SALDO MES ANTERIOR                            00000070353 00000000000000000000     00000000000 00000000000 00000000000 00000000000 00000000000 201802180000000 00000O
20180209000524601000258992902001000238521604C524601000524601001263338600052460100025899292018020922100000DEV EECC ENE-18                         00244100000000500-00000000000000000000 T   00000000000 00000000500-00000000000 00000000000 00000000000 201802180000000 00000O
20180218000524601000258992903002000000000          0005246010002589929000524601000258992920180218   00000CUOTAS DEL MES (VER DETALLE)                  00000026949 00000000000000000000     00000000000 00000000000 00000000000 00000000000 00000000000 201802180000000 00000O
20180217000524601000258992904001000238523604C524601000524601001263338600052460100126333862018021602100000PAGO-PLAZA VEA HIGUERETA                P0883100000070000-00000000000000000000 T   00000000000 00000070000-00000000000 00000000000 00000000000 201802180000000 00000O
20180218000524601000258992904097000000000000       0005246010012633386000524601001263338620171221   00000CUOTAS ADELANTADAS                            00000022311 00000000000000000000     00000000000 00000000000 00000000000 00000000000 00000000000 201802180000000 00000O
20180218000524601000258992905001000238525604D5246010005246010012633386                   2018021840200136INTERES REVOLVENTE - COMPRAS                  00000000403 00000000000000000403     00000000000 00000000000 00000000000 00000000000 00000000000 201802180000000 00000O
20180216000524601000258992905002000000000          000524601000258992900052460100025899292018021618600136PENALIDAD POR ATRASO                          00000004000 00000000000000004000     00000000000 00000000000 00000000000 00000000000 00000000000 000000000000000 00000O
20180218000524601000258992905003000000000          000524601000258992900052460100025899292018021841800136COMISION ENVIO EECC                           00000000500 00000000000000000500     00000000000 00000000000 00000000000 00000000000 00000000000 000000000000000 00000O
20180218000524601000258992905004000000000          000524601000258992900052460100025899292018021842500136SEGURO DE DESGRAVAMEN                         00000000500 00000000000000000500     00000000000 00000000000 00000000000 00000000000 00000000000 000000000000000 00000O
20171222000524601000258992906001000238520604D524601000524601001263338600052460100126333862017122100000300PLAZA VEA HIGUERETA                     R0988300000050116 00000200200000026949 T   00000050116 00000000000 00000000000 00000000000 00000026949 201802180000000 08700O
20180218000524601000258992907999            T                                                            TOTAL PAGO DE CUOTAS DEL MES                                       00000026949                                                                                       
20180218000524601000258992908001000164183604D524601000524601000258992900052460100025899292017121780000300OFICINA PRINCIPAL T02                   S0180900000032201 00100200200000020967  ADL00000000000 00000032201 00000020967 00000005154 00000032201 201802180000000 08700O
20180218000524601000258992908002000164183604D524601000524601001263338600052460100126333862017122180000300PLAZA VEA HIGUERETA                     R0988300000050116 00200200200000001344  ADL00000000000 00000050116 00000001344 00000006469 00000026949 201802180000000 09200O
20180218000524601000258992908999            T                                                            TOTAL PAGO ADELANTADO                                              00000022311                                                                                       
20180218000524601000289841101001000000000          0005246010002898411000524601000289841120180218   00000SALDO MES ANTERIOR                            00000109802 00000000000000000000     00000000000 00000000000 00000000000 00000000000 00000000000 201802180000000 00000O
20180201000524601000289841102001000731185604D524601000524601001145049300052460100114504932018013112500136PLAZA VEA TRUJILLO                      R0704500000025809 00000000000000000000 T   00000000000 00000025809 00000000000 00000000000 00000000000 201802180000000 00000O
20180209000524601000289841102002000731186604D524601000524601001145049300052460100114504932018020812500136PLAZA VEA TRUJILLO                      R0611800000011130 00000000000000000000 T   00000000000 00000011130 00000000000 00000000000 00000000000 201802180000000 00000O
20180215000524601000289841102003000731187604D524601000524601001145049300052460100114504932018012101600136SEGUROS OH PREVENCION FAMILIAR          05924700000001895 00000000000000000000 T   00000000000 00000001895 00000000000 00000000000 00000000000 201802180000000 00000O
20180218000524601000289841103002000000000          0005246010002898411000524601000289841120180218   00000CUOTAS DEL MES (VER DETALLE)                  00000029929 00000000000000000000     00000000000 00000000000 00000000000 00000000000 00000000000 201802180000000 00000O
20180215000524601000289841104001000731188604C524601000524601001145049300052460100114504932018021502100000PAGO-PAGO AG.IB 201802                  00817900000109802-00000000000000000000 T   00000000000 00000109802-00000000000 00000000000 00000000000 201802180000000 00000O
20180218000524601000289841104097000000000000       0005246010011450493000524601001145049320180102   00000CUOTAS ADELANTADAS                            00000022998 00000000000000000000     00000000000 00000000000 00000000000 00000000000 00000000000 201802180000000 00000O
20180218000524601000289841105001000000000          000524601000289841100052460100028984112018021840300136IMPUESTO ITF PAGO                             00000000005 00000000000000000005     00000000000 00000000000 00000000000 00000000000 00000000000 000000000000000 00000O
20180218000524601000289841105002000000000          000524601000289841100052460100028984112018021842500136SEGURO DE DESGRAVAMEN                         00000000500 00000000000000000500     00000000000 00000000000 00000000000 00000000000 00000000000 000000000000000 00000O
20171224000524601000289841106001000731183604D524601000524601001145049300052460100114504932017122300000300OECHSLE TRUJILLO                        R0454500000052569 00000200300000018354 T   00000052569 00000000000 00000000000 00000000000 00000018354 201802180000000 08700O
20180103000524601000289841106002000731184604D524601000524601001145049300052460100114504932018010200000300OECHSLE TRUJILLO                        R0011300000021980 00000200200000011575 T   00000021980 00000000000 00000000000 00000000000 00000011575 201802180000000 08700O
20180218000524601000289841107999            T                                                            TOTAL PAGO DE CUOTAS DEL MES                                       00000029929                                                                                       
20180218000524601000289841108001000099591604D524601000524601000289841100052460100028984112017121780000300PRODUCTO 8 HP ELECTRO                   S0180900000189900 00100201300000019489  ADL00000000000 00000189900 00000019489 00000096070 00000024196 201802180000000 08700O
20180218000524601000289841108002000099591604D524601000524601001145049300052460100114504932017122380000300OECHSLE TRUJILLO                        R0454500000052569 00200300300000002932  ADL00000000000 00000052569 00000002932 00000016214 00000037519 201802180000000 08700O
20180218000524601000289841108003000099591604D524601000524601001145049300052460100114504932018010280000300OECHSLE TRUJILLO                        R0011300000021980 00200200200000000577  ADL00000000000 00000021980 00000000577 00000002324 00000011575 201802180000000 09200O
20180218000524601000289841108999            T                                                            TOTAL PAGO ADELANTADO                                              00000022998                                                                                       
20180218000524601000291529801001000000000          0005246010002915298000524601000291529820180218   00000SALDO MES ANTERIOR                            00000048412 00000000000000000000     00000000000 00000000000 00000000000 00000000000 00000000000 201802180000000 00000O
20180216000524601000291529802001000798628604C524601000524601001280696600052460100128069662018021422100000ABONO POR PENALIDAD                     54573500000004000-00000000000000000000 T   00000000000 00000004000-00000000000 00000000000 00000000000 201802180000000 00000O
20180218000524601000291529803002000000000          0005246010002915298000524601000291529820180218   00000CUOTAS DEL MES (VER DETALLE)                  00000016796 00000000000000000000     00000000000 00000000000 00000000000 00000000000 00000000000 201802180000000 00000O
20180216000524601000291529804001000798626604C524601000524601001280696600052460100128069662018021502100000PAGO-PLAZA VEA HUARAL LINEAL            P0885900000048412-00000000000000000000 T   00000000000 00000048412-00000000000 00000000000 00000000000 201802180000000 00000O
20180218000524601000291529804097000000000000       0005246010012806966000524601001280696620180215   00000CUOTAS ADELANTADAS                            00000006329 00000000000000000000     00000000000 00000000000 00000000000 00000000000 00000000000 201802180000000 00000O
20180218000524601000291529805001000000000          000524601000291529800052460100029152982018021841800136COMISION ENVIO EECC                           00000000500 00000000000000000500     00000000000 00000000000 00000000000 00000000000 00000000000 000000000000000 00000O
20180218000524601000291529805002000000000          000524601000291529800052460100029152982018021842500136SEGURO DE DESGRAVAMEN                         00000000500 00000000000000000500     00000000000 00000000000 00000000000 00000000000 00000000000 000000000000000 00000O
20180218000524601000291529805091000000000          000524601000291529800052460100029152982018021830100100CREDITO EFECTIVO - CAPITAL                    00000014706 00000502400000014706     00000000000 00000000000 00000000000 00000000000 00000000000 000000000000000 02564O
20180218000524601000291529805092000000000          000524601000291529800052460100029152982018021830700100CREDITO EFECTIVO - INTERESES                  00000006143 00000000000000006143     00000000000 00000000000 00000000000 00000000000 00000000000 000000000000000 00000O
20171224000524601000291529806001000798625604D524601000524601001280696600052460100029152982017122300000300PLAZA VEA HUARAL LINEAL                 R0964900000016856 00000200200000005033 T   00000016856 00000000000 00000000000 00000000000 00000005033 201802180000000 08700O
20180216000524601000291529806002000798627604D524601000524601001280696600052460100128069662018021508900300PLAZA VEA HUARAL LINEAL                 R0124300000024046 00000100200000011763 T   00000000000 00000024046 00000000000 00000000000 00000011763 201802180000000 08700O
20180218000524601000291529807999            T                                                            TOTAL PAGO DE CUOTAS DEL MES                                       00000016796                                                                                       
20180218000524601000291529808001000108181604D524601000524601000291529800052460100029152982017122380000300PLAZA VEA HUARAL LINEAL                 R0964900000016856 00200200200000004450  ADL00000000000 00000016856 00000004450 00000002109 00000009033 201802180000000 08700O
20180218000524601000291529808002000108181604D524601000524601001280696600052460100128069662018021580000300PLAZA VEA HUARAL LINEAL                 R0124300000024046 00100200200000001879  ADL00000000000 00000024046 00000001879 00000003758 00000024046 201802180000000 04130O
20180218000524601000291529808999            T                                                            TOTAL PAGO ADELANTADO                                              00000006329                                                                                       
20180218000524601000305300801001000000000          0005246010003053008000524601000305300820180218   00000SALDO MES ANTERIOR                            00000279001 00000000000000000000     00000000000 00000000000 00000000000 00000000000 00000000000 201802180000000 00000O
20180125000524601000305300802001000200839604C524601000524601001076156900052460100030530082017091721300300RQ1261171                               R8837500000012100-00000000000000000000 T   00000000000 00000012100-00000000000 00000000000 00000000000 201802180000000 00000O
20180125000524601000305300802002000200840604C524601000524601001076156900052460100030530082017101821300300RQ1261171                               R3853700000008694-00000000000000000000 T   00000000000 00000008694-00000000000 00000000000 00000000000 201802180000000 00000O
20180125000524601000305300802003000200841604C524601000524601001076156900052460100030530082017091729900300RQ1261171                               R8837500000000424-00000000000000000000     00000000000 00000000424-00000000000 00000000000 00000000000 201802180000000 00000O
20180125000524601000305300802004000200842604C524601000524601001076156900052460100030530082017101829900300RQ1261171                               R3853700000000250-00000000000000000000     00000000000 00000000250-00000000000 00000000000 00000000000 201802180000000 00000O
20180131000524601000305300802005000200843604D524601000524601001076156900052460100107615692018013101600136UCV POSTGRADO                           O0100000000013000 00000000000000000000 T   00000000000 00000013000 00000000000 00000000000 00000000000 201802180000000 00000O
20180215000524601000305300802006000200844604D524601000524601001076156900052460100107615692018012501600136SEGUROS OH ASISTENCIA                   05035200000000790 00000000000000000000 T   00000000000 00000000790 00000000000 00000000000 00000000000 201802180000000 00000O
20180218000524601000305300803002000000000          0005246010003053008000524601000305300820180218   00000CUOTAS DEL MES (VER DETALLE)                  00000120494 00000000000000000000     00000000000 00000000000 00000000000 00000000000 00000000000 201802180000000 00000O
20180218000524601000305300804097000000000000       0005246010003053008000524601000305300820171018   00000CUOTAS ADELANTADAS                            00000019414 00000000000000000000     00000000000 00000000000 00000000000 00000000000 00000000000 201802180000000 00000O
20180218000524601000305300805001000200851604D5246010005246010010761569                   2018021840200136INTERES REVOLVENTE - COMPRAS                  00000003986 00000000000000003986     00000000000 00000000000 00000000000 00000000000 00000000000 201802180000000 00000O
20180218000524601000305300805002000200852604D5246010005246010010761569                   2018021840209300INTERES COMPENSATORIO                         00000000855 00000000000000000855     00000000000 00000000000 00000000000 00000000000 00000000000 201802180000000 00000O
20180216000524601000305300805003000000000          000524601000305300800052460100030530082018021618600136PENALIDAD POR ATRASO                          00000004000 00000000000000004000     00000000000 00000000000 00000000000 00000000000 00000000000 000000000000000 00000O
20180218000524601000305300805004000000000          000524601000305300800052460100030530082018021842500136SEGURO DE DESGRAVAMEN                         00000000500 00000000000000000500     00000000000 00000000000 00000000000 00000000000 00000000000 000000000000000 00000O
20180218000524601000305300805091000000000          000524601000305300800052460100030530082018021830100100CREDITO EFECTIVO - CAPITAL                    00000070171 00000000000000070171     00000000000 00000000000 00000000000 00000000000 00000000000 000000000000000 00000O
20180218000524601000305300805092000000000          000524601000305300800052460100030530082018021830700100CREDITO EFECTIVO - INTERESES                  00000027433 00000000000000027433     00000000000 00000000000 00000000000 00000000000 00000000000 000000000000000 00000O
20170301000524601000305300806001000200826604D524601000524601001076156900052460100107615692017030100000300OECHSLE JR DE LA UNION                  R0159700000132200 00001201800000012000 T   00000132200 00000000000 00000000000 00000003421 00000008579 201802180000000 08700O
20171101000524601000305300806002000200827604D524601000524601001076156900052460100107615692017103100000301PLAZA VEA SAN JUAN DE LURIGANCHO        C0550200000100000 00000401200000011184 T   00000100000 00000000000 00000000000 00000003358 00000007826 201802180000000 06800O
20171104000524601000305300806003000200828604D524601000524601001076156900052460100107615692017110300000301PLAZA VEA SAN JUAN DE LURIGANCHO        C0181800000100000 00000401200000011135 T   00000100000 00000000000 00000000000 00000003344 00000007791 201802180000000 06800O
20171104000524601000305300806004000200829604D524601000524601001076156900052460100107615692017110300000301PLAZA VEA SAN JUAN DE LURIGANCHO        C0186800000050000 00000401200000005567 T   00000050000 00000000000 00000000000 00000001672 00000003895 201802180000000 06800O
20171110000524601000305300806005000200830604D524601000524601001076156900052460100107615692017111000000300SODIMAC SAN JUAN DE LURIGANCHO          R0506600000029415 00000400400000008496 T   00000029415 00000000000 00000000000 00000000420 00000008076 201802180000000 09200O
20171121000524601000305300806006000200831604D524601000524601001076156900052460100107615692017112000000301PLAZA VEA SAN JUAN DE LURIGANCHO        C0296500000100000 00000301200000011353 T   00000100000 00000000000 00000000000 00000003711 00000007642 201802180000000 06800O
20171129000524601000305300806007000200832604D524601000524601001076156900052460100107615692017112900000300METRO SAN JUAN DE LURIGANCHO H006       R0208300000027900 00000300300000010682 T   00000027900 00000000000 00000000000 00000000528 00000010154 201802180000000 09200O
20171229000524601000305300806008000200833604D524601000524601001076156900052460100107615692017122800000300ADIDAS                                  R0619100000029100 00000200300000011161 T   00000029100 00000000000 00000000000 00000001074 00000010087 201802180000000 09200O
20171229000524601000305300806009000200834604D524601000524601001076156900052460100107615692017122800000300BATA PERU                               R0820200000024970 00000200400000007374 T   00000024970 00000000000 00000000000 00000001036 00000006338 201802180000000 09200O
20171229000524601000305300806010000200835604D524601000524601001076156900052460100107615692017122800000300PLATANITOS BOUTIQUE                     R0939600000021490 00000200300000008242 T   00000021490 00000000000 00000000000 00000000793 00000007449 201802180000000 09200O
20171229000524601000305300806011000200836604D524601000524601001076156900052460100107615692017122800000300PLATANITOS BOUTIQUE                     R0950600000026960 00000200400000007962 T   00000026960 00000000000 00000000000 00000001119 00000006843 201802180000000 09200O
20180118000524601000305300806012000200837604D524601000524601001076156900052460100107615692018011700000300PLAZA VEA SAN JUAN DE LURIGANCHO        R0818800000009990 00000100200000005209 T   00000009990 00000000000 00000000000 00000000288 00000004921 201802180000000 04241O
20180119000524601000305300806013000200838604D524601000524601001076156900052460100107615692018011808900300OECHSLE JR DE LA UNION                  R0490600000017897 00000100200000010129 T   00000000000 00000017897 00000000000 00000001830 00000008299 201802180000000 08700O
20180218000524601000305300807999            T                                                            TOTAL PAGO DE CUOTAS DEL MES                                       00000120494                                                                                       
20180218000524601000305300808001000159140604D524601000524601000305300800052460100030530082017091780000300VENTA DE SEGUROS                        R8837500000013900 00501801800000011479  ADL00000000000 00000013900 00000011479 00000068824 00000011479 201802180000000 09200O
20180218000524601000305300808002000159140604D524601000524601000305300800052460100030530082017101880000300VENTA DE SEGUROS                        R3853700000009900 00401201200000007935  ADL00000000000 00000009900 00000007935 00000019872 00000007935 201802180000000 06800O
20180218000524601000305300808999            T                                                            TOTAL PAGO ADELANTADO                                              00000019414                                                                                       
20180218000524601000344751501001000000000          0005246010003447515000524601000344751520180218   00000SALDO MES ANTERIOR                            00000072409 00000000000000000000     00000000000 00000000000 00000000000 00000000000 00000000000 201802180000000 00000O
20180125000524601000344751502001000080719604D524601000524601001263887200052460100126388722018012501400136PAYULAT*NETFLIX 2                       T0624500000004490 00000000000000000000 T   00000000000 00000004490 00000000000 00000000000 00000000000 201802180000000 00000O
20180126000524601000344751502002000080720604C524601000524601001263887200052460100034475152017120820100300OECHSLE / PAYU                          T0175600000003950-00000000000000000000 T   00000000000 00000003950-00000000000 00000000000 00000000000 201802180000000 00000O
20180218000524601000344751503002000000000          0005246010003447515000524601000344751520180218   00000CUOTAS DEL MES (VER DETALLE)                  00000051670 00000000000000000000     00000000000 00000000000 00000000000 00000000000 00000000000 201802180000000 00000O
20180217000524601000344751504001000080722604C524601000524601001263887200052460100126388722018021702100000PAGO-PAGO AG.IB 201802                  67308500000040000-00000000000000000000 T   00000000000 00000040000-00000000000 00000000000 00000000000 201802180000000 00000O
20180218000524601000344751504097000000000000       0005246010012638872000524601001263887220171218   00000CUOTAS ADELANTADAS                            00000000062 00000000000000000000     00000000000 00000000000 00000000000 00000000000 00000000000 201802180000000 00000O
20180218000524601000344751505001000080726604D5246010005246010012638872                   2018021840200136INTERES REVOLVENTE - COMPRAS                  00000000084 00000000000000000084     00000000000 00000000000 00000000000 00000000000 00000000000 201802180000000 00000O
20180218000524601000344751505002000080727604D5246010005246010012638872                   2018021840209300INTERES COMPENSATORIO                         00000000217 00000000000000000217     00000000000 00000000000 00000000000 00000000000 00000000000 201802180000000 00000O
20180216000524601000344751505003000000000          000524601000344751500052460100034475152018021618600136PENALIDAD POR ATRASO                          00000004000 00000000000000004000     00000000000 00000000000 00000000000 00000000000 00000000000 000000000000000 00000O
20180218000524601000344751505004000000000          000524601000344751500052460100034475152018021842500136SEGURO DE DESGRAVAMEN                         00000000500 00000000000000000500     00000000000 00000000000 00000000000 00000000000 00000000000 000000000000000 00000O
20171105000524601000344751506001000080713604D524601000524601001263887200052460100034475152017110500000300PROMART BRASIL                          R0073800000054900 00000400400000015080 T   00000054900 00000000000 00000000000 00000000460 00000014620 201802180000000 04900O
20171201000524601000344751506002000080714604D524601000524601001263887200052460100034475152017113000000300PROMART BRASIL                          R0540100000016540 00000300300000006201 T   00000016540 00000000000 00000000000 00000000264 00000005937 201802180000000 07500O
20171218000524601000344751506003000080715604D524601000524601001263887200052460100126388722017121800000300LOVE DECO STORES SAC UCAYALI            R0248100000018290 00000200300000007081 T   00000018290 00000000000 00000000000 00000000625 00000006456 201802180000000 09200O
20171222000524601000344751506004000080716604D524601000524601001263887200052460100126388722017122000000300SAMY & YOU                              R0397400000007600 00000200200000004319 T   00000007600 00000000000 00000000000 00000000213 00000004106 201802180000000 09200O
20171224000524601000344751506005000080717604D524601000524601001263887200052460100126388722017122300000300CASA IDEAS                              R0391100000014390 00000200300000005569 T   00000014390 00000000000 00000000000 00000000536 00000005033 201802180000000 09200O
20171224000524601000344751506006000080718604D524601000524601001263887200052460100126388722017122400000300PLAZA VEA CENTRO CIVICO                 R0219500000023898 00000200200000013420 T   00000023898 00000000000 00000000000 00000000637 00000012783 201802180000000 08700O
20180218000524601000344751507999            T                                                            TOTAL PAGO DE CUOTAS DEL MES                                       00000051670                                                                                       
20180218000524601000344751508001000144153604D524601000524601001263887200052460100126388722017121880000300LOVE DECO STORES SAC UCAYALI            R0248100000018290 00200200300000000062  ADL00000000000 00000018290 00000000062 00000003140 00000006456 201802180000000 09200O
20180218000524601000344751508999            T                                                            TOTAL PAGO ADELANTADO                                              00000000062                                                                                       
20180218000524601000411615001001000000000          0005246010004116150000524601000411615020180218   00000SALDO MES ANTERIOR                            00000211904 00000000000000000000     00000000000 00000000000 00000000000 00000000000 00000000000 201802180000000 00000O
20180218000524601000411615003002000000000          0005246010004116150000524601000411615020180218   00000CUOTAS DEL MES (VER DETALLE)                  00000020375 00000000000000000000     00000000000 00000000000 00000000000 00000000000 00000000000 201802180000000 00000O
20180218000524601000411615005001000204577604D5246010005246010004116150                   2018021840200136INTERES REVOLVENTE - COMPRAS                  00000008942 00000000000000008942     00000000000 00000000000 00000000000 00000000000 00000000000 201802180000000 00000O
20180218000524601000411615005002000204578604D5246010005246010004116150                   2018021840200236INTERES REVOLVENTE - DISP/EFE                 00000002242 00000000000000002242     00000000000 00000000000 00000000000 00000000000 00000000000 201802180000000 00000O
20180218000524601000411615005003000204579604D5246010005246010004116150                   2018021840209300INTERES COMPENSATORIO                         00000001109 00000000000000001109     00000000000 00000000000 00000000000 00000000000 00000000000 201802180000000 00000O
20180202000524601000411615005004000000000          000524601000411615000052460100041161502018020240100136MEMBRESIA ANUAL                               00000003900 00000000000000003900     00000000000 00000000000 00000000000 00000000000 00000000000 000000000000000 00000O
20180216000524601000411615005005000000000          000524601000411615000052460100041161502018021618600136PENALIDAD POR ATRASO                          00000004500 00000000000000004500     00000000000 00000000000 00000000000 00000000000 00000000000 000000000000000 00000O
20180218000524601000411615005006000000000          000524601000411615000052460100041161502018021841800136COMISION ENVIO EECC                           00000000500 00000000000000000500     00000000000 00000000000 00000000000 00000000000 00000000000 000000000000000 00000O
20180218000524601000411615005007000000000          000524601000411615000052460100041161502018021842500136SEGURO DE DESGRAVAMEN                         00000000500 00000000000000000500     00000000000 00000000000 00000000000 00000000000 00000000000 000000000000000 00000O
20170609000524601000411615006001000204568604D524601000524601000411615000052460100041161502017060900000301DIS EFEC REPROGRAMACION                 O2084200000064095 00000901200000006883 T   00000064095 00000000000 00000000000 00000000920 00000005963 201802180000000 05899O
20170609000524601000411615006002000204569604D524601000524601000411615000052460100041161502017060900000300COMPRA REPROGRAMAC.                     O2084100000125639 00000901200000013492 T   00000125639 00000000000 00000000000 00000001803 00000011689 201802180000000 05899O
20180218000524601000411615007999            T                                                            TOTAL PAGO DE CUOTAS DEL MES                                       00000020375                                                                                       
