20180218000404071000113271901001000000000          0004040710001132719000404071000113271920180218   00000SALDO MES ANTERIOR                            00000068543 00000000000000000000     00000000000 00000000000 00000000000 00000000000 00000000000 201802180000000 00000O
20180122000404071000113271902001000330938604D404071000404071000113271900040407100011327192018012001600136OECHSLE JR DE LA UNION                  00622300000004784 00000000000000000000 T   00000000000 00000004784 00000000000 00000000000 00000000000 201802180000000 00000O
20180122000404071000113271902002000330939604D404071000404071000113271900040407100011327192018012012500136PLAZA VEA ACHO - LINEA                  01256600000022721 00000000000000000000 T   00000000000 00000022721 00000000000 00000000000 00000000000 201802180000000 00000O
20180123000404071000113271902003000330940604D404071000404071000113271900040407100011327192018012301500136Spotify P04B67C75D                      02089700000002890 00000000000000000000 T   00000000000 00000002890 00000000000 00000000000 00000000000 201802180000000 00000O
20180124000404071000113271902004000330941604C404071000404071000113271900040407100011327192017122320100300PF PAYU PROMART 2                       03805700000049900-00000000000000000000 T   00000000000 00000049900-00000000000 00000000000 00000000000 201802180000000 00000O
20180129000404071000113271902005000330942604D404071000404071000113271900040407100011327192018012501600136FRUTIX                                  00695500000001072 00000000000000000000 T   00000000000 00000001072 00000000000 00000000000 00000000000 201802180000000 00000O
20180129000404071000113271902006000330943604D404071000404071000113271900040407100011327192018012501600136POPEYES 06                              00733100000002580 00000000000000000000 T   00000000000 00000002580 00000000000 00000000000 00000000000 201802180000000 00000O
20180130000404071000113271902007000330945604D404071000404071000113271900040407100011327192018012812500136PLAZA VEA ACHO   LINEA                  00739500000000150 00000000000000000000 T   00000000000 00000000150 00000000000 00000000000 00000000000 201802180000000 00000O
20180205000404071000113271902008000330947604D404071000404071000113271900040407100011327192018020301600136SUC 62   MAESTRO BARRI                  00728300000008527 00000000000000000000 T   00000000000 00000008527 00000000000 00000000000 00000000000 201802180000000 00000O
20180205000404071000113271902009000330948604D404071000404071000113271900040407100011327192018020212500136PLAZA VEA ACHO   LINEA                  02909700000003586 00000000000000000000 T   00000000000 00000003586 00000000000 00000000000 00000000000 201802180000000 00000O
20180209000404071000113271902010000330949604D404071000404071000113271900040407100011327192018020701600136POPEYES PLAZA LIMA NOR                  00881700000003080 00000000000000000000 T   00000000000 00000003080 00000000000 00000000000 00000000000 201802180000000 00000O
20180209000404071000113271902011000330950604D404071000404071000113271900040407100011327192018020712500136PLAZA VEA ACHO   LINEA                  01173000000018328 00000000000000000000 T   00000000000 00000018328 00000000000 00000000000 00000000000 201802180000000 00000O
20180218000404071000113271903002000000000          0004040710001132719000404071000113271920180218   00000CUOTAS DEL MES (VER DETALLE)                  00000007406 00000000000000000000     00000000000 00000000000 00000000000 00000000000 00000000000 201802180000000 00000O
20180215000404071000113271904001000330951604C404071000404071000113271900040407100011327192018021502100000PAGO-PAGO-SUPER VEA JR DE LA UNION      00758500000040331-00000000000000000000 T   00000000000 00000040331-00000000000 00000000000 00000000000 201802180000000 00000O
20180218000404071000113271904097000000000000       0004040710001132719000404071000113271920180129   00000CUOTAS ADELANTADAS                            00000032206 00000000000000000000     00000000000 00000000000 00000000000 00000000000 00000000000 201802180000000 00000O
20180218000404071000113271905001000330954604D4040710004040710001132719                   2018021840200136INTERES REVOLVENTE - COMPRAS                  00000002583 00000000000000002583     00000000000 00000000000 00000000000 00000000000 00000000000 201802180000000 00000O
20180218000404071000113271905002000000000          000404071000113271900040407100011327192018021842500136SEGURO DE DESGRAVAMEN                         00000000500 00000000000000000500     00000000000 00000000000 00000000000 00000000000 00000000000 000000000000000 00000O
20180130000404071000113271906001000330944604D404071000404071000113271900040407100011327192018012808900300PLAZA VEA ACHO   LINEA                  00731000000008099 00000100200000003830 T   00000000000 00000008099 00000000000 00000000000 00000003830 201802180000000 08700O
20180131000404071000113271906002000330946604D404071000404071000113271900040407100011327192018012908900300SUPER VEA JR DE LA UNI                  00494400000007546 00000100200000003576 T   00000000000 00000007546 00000000000 00000000000 00000003576 201802180000000 08700O
20180218000404071000113271907999            T                                                            TOTAL PAGO DE CUOTAS DEL MES                                       00000007406                                                                                       
20180218000404071000113271908001000046432604D404071000404071000113271900040407100011327192017122380000300COMPRA CUOTAS                           03805700000049900 00200200200000026817  ADL00000000000 00000049900 00000026817 00000006524 00000026817 201802180000000 08700O
20180218000404071000113271908002000046432604D404071000404071000113271900040407100011327192017122880000300COMPRA CUOTAS                           01379700000010145 00200200200000005657  ADL00000000000 00000010145 00000005657 00000001170 00000005389 201802180000000 08700O
20180218000404071000113271908003000046432604D404071000404071000113271900040407100011327192018012880000300COMPRA CUOTAS                           00731000000008099 00100200200000000910  ADL00000000000 00000008099 00000000910 00000001820 00000008099 201802180000000 08700O
20180218000404071000113271908004000046432604D404071000404071000113271900040407100011327192018012980000300COMPRA CUOTAS                           00494400000007546 00100200200000000833  ADL00000000000 00000007546 00000000833 00000001666 00000007546 201802180000000 04130O
20180218000404071000113271908999            T                                                            TOTAL PAGO ADELANTADO                                              00000034217                                                                                       